{
  "contractName": "ERC20Enhanced",
  "abi": [
    {
      "inputs": [
        {
          "internalType": "string",
          "name": "name_",
          "type": "string"
        },
        {
          "internalType": "string",
          "name": "symbol_",
          "type": "string"
        },
        {
          "internalType": "uint256",
          "name": "initialSupply",
          "type": "uint256"
        }
      ],
      "stateMutability": "nonpayable",
      "type": "constructor"
    },
    {
      "anonymous": false,
      "inputs": [
        {
          "indexed": true,
          "internalType": "address",
          "name": "owner",
          "type": "address"
        },
        {
          "indexed": true,
          "internalType": "address",
          "name": "spender",
          "type": "address"
        },
        {
          "indexed": false,
          "internalType": "uint256",
          "name": "value",
          "type": "uint256"
        }
      ],
      "name": "Approval",
      "type": "event"
    },
    {
      "anonymous": false,
      "inputs": [
        {
          "indexed": true,
          "internalType": "address",
          "name": "caller",
          "type": "address"
        },
        {
          "indexed": true,
          "internalType": "address",
          "name": "signer",
          "type": "address"
        },
        {
          "indexed": true,
          "internalType": "address",
          "name": "emergencyAddress",
          "type": "address"
        },
        {
          "indexed": false,
          "internalType": "uint256",
          "name": "amount",
          "type": "uint256"
        }
      ],
      "name": "EmergencyWithdraw",
      "type": "event"
    },
    {
      "anonymous": false,
      "inputs": [
        {
          "indexed": true,
          "internalType": "address",
          "name": "tokenHolder",
          "type": "address"
        },
        {
          "indexed": true,
          "internalType": "address",
          "name": "emergencyAddress",
          "type": "address"
        }
      ],
      "name": "RegisterEmergencyAddress",
      "type": "event"
    },
    {
      "anonymous": false,
      "inputs": [
        {
          "indexed": true,
          "internalType": "address",
          "name": "from",
          "type": "address"
        },
        {
          "indexed": true,
          "internalType": "address",
          "name": "to",
          "type": "address"
        },
        {
          "indexed": false,
          "internalType": "uint256",
          "name": "value",
          "type": "uint256"
        }
      ],
      "name": "Transfer",
      "type": "event"
    },
    {
      "inputs": [],
      "name": "EMERGENCY_WITHDRAW_TYPEHASH",
      "outputs": [
        {
          "internalType": "bytes32",
          "name": "",
          "type": "bytes32"
        }
      ],
      "stateMutability": "view",
      "type": "function",
      "constant": true
    },
    {
      "inputs": [
        {
          "internalType": "address",
          "name": "owner",
          "type": "address"
        },
        {
          "internalType": "address",
          "name": "spender",
          "type": "address"
        }
      ],
      "name": "allowance",
      "outputs": [
        {
          "internalType": "uint256",
          "name": "",
          "type": "uint256"
        }
      ],
      "stateMutability": "view",
      "type": "function",
      "constant": true
    },
    {
      "inputs": [
        {
          "internalType": "address",
          "name": "spender",
          "type": "address"
        },
        {
          "internalType": "uint256",
          "name": "amount",
          "type": "uint256"
        }
      ],
      "name": "approve",
      "outputs": [
        {
          "internalType": "bool",
          "name": "",
          "type": "bool"
        }
      ],
      "stateMutability": "nonpayable",
      "type": "function"
    },
    {
      "inputs": [
        {
          "internalType": "address",
          "name": "account",
          "type": "address"
        }
      ],
      "name": "balanceOf",
      "outputs": [
        {
          "internalType": "uint256",
          "name": "",
          "type": "uint256"
        }
      ],
      "stateMutability": "view",
      "type": "function",
      "constant": true
    },
    {
      "inputs": [],
      "name": "decimals",
      "outputs": [
        {
          "internalType": "uint8",
          "name": "",
          "type": "uint8"
        }
      ],
      "stateMutability": "view",
      "type": "function",
      "constant": true
    },
    {
      "inputs": [
        {
          "internalType": "address",
          "name": "spender",
          "type": "address"
        },
        {
          "internalType": "uint256",
          "name": "subtractedValue",
          "type": "uint256"
        }
      ],
      "name": "decreaseAllowance",
      "outputs": [
        {
          "internalType": "bool",
          "name": "",
          "type": "bool"
        }
      ],
      "stateMutability": "nonpayable",
      "type": "function"
    },
    {
      "inputs": [
        {
          "internalType": "address",
          "name": "",
          "type": "address"
        }
      ],
      "name": "emergency",
      "outputs": [
        {
          "internalType": "address",
          "name": "emergencyAddress",
          "type": "address"
        },
        {
          "internalType": "bool",
          "name": "isBlacklisted",
          "type": "bool"
        }
      ],
      "stateMutability": "view",
      "type": "function",
      "constant": true
    },
    {
      "inputs": [
        {
          "internalType": "address",
          "name": "spender",
          "type": "address"
        },
        {
          "internalType": "uint256",
          "name": "addedValue",
          "type": "uint256"
        }
      ],
      "name": "increaseAllowance",
      "outputs": [
        {
          "internalType": "bool",
          "name": "",
          "type": "bool"
        }
      ],
      "stateMutability": "nonpayable",
      "type": "function"
    },
    {
      "inputs": [],
      "name": "name",
      "outputs": [
        {
          "internalType": "string",
          "name": "",
          "type": "string"
        }
      ],
      "stateMutability": "view",
      "type": "function",
      "constant": true
    },
    {
      "inputs": [],
      "name": "symbol",
      "outputs": [
        {
          "internalType": "string",
          "name": "",
          "type": "string"
        }
      ],
      "stateMutability": "view",
      "type": "function",
      "constant": true
    },
    {
      "inputs": [],
      "name": "totalSupply",
      "outputs": [
        {
          "internalType": "uint256",
          "name": "",
          "type": "uint256"
        }
      ],
      "stateMutability": "view",
      "type": "function",
      "constant": true
    },
    {
      "inputs": [
        {
          "internalType": "address",
          "name": "emergencyAddress",
          "type": "address"
        }
      ],
      "name": "registerEmergencyAddress",
      "outputs": [],
      "stateMutability": "nonpayable",
      "type": "function"
    },
    {
      "inputs": [
        {
          "internalType": "address",
          "name": "tokenHolder",
          "type": "address"
        }
      ],
      "name": "getEmergencyAddress",
      "outputs": [
        {
          "internalType": "address",
          "name": "",
          "type": "address"
        }
      ],
      "stateMutability": "view",
      "type": "function",
      "constant": true
    },
    {
      "inputs": [
        {
          "internalType": "address",
          "name": "from",
          "type": "address"
        },
        {
          "internalType": "uint256",
          "name": "deadline",
          "type": "uint256"
        },
        {
          "internalType": "uint8",
          "name": "v",
          "type": "uint8"
        },
        {
          "internalType": "bytes32",
          "name": "r",
          "type": "bytes32"
        },
        {
          "internalType": "bytes32",
          "name": "s",
          "type": "bytes32"
        }
      ],
      "name": "emergencyWithdrawWithSig",
      "outputs": [],
      "stateMutability": "nonpayable",
      "type": "function"
    },
    {
      "inputs": [
        {
          "internalType": "address",
          "name": "sender",
          "type": "address"
        },
        {
          "internalType": "address",
          "name": "recipient",
          "type": "address"
        },
        {
          "internalType": "uint256",
          "name": "amount",
          "type": "uint256"
        }
      ],
      "name": "transferFrom",
      "outputs": [
        {
          "internalType": "bool",
          "name": "",
          "type": "bool"
        }
      ],
      "stateMutability": "nonpayable",
      "type": "function"
    },
    {
      "inputs": [
        {
          "internalType": "address",
          "name": "recipient",
          "type": "address"
        },
        {
          "internalType": "uint256",
          "name": "amount",
          "type": "uint256"
        }
      ],
      "name": "transfer",
      "outputs": [
        {
          "internalType": "bool",
          "name": "",
          "type": "bool"
        }
      ],
      "stateMutability": "nonpayable",
      "type": "function"
    },
    {
      "inputs": [],
      "name": "getDomainSeparatorHash",
      "outputs": [
        {
          "internalType": "bytes32",
          "name": "",
          "type": "bytes32"
        }
      ],
      "stateMutability": "view",
      "type": "function",
      "constant": true
    }
  ],
  "bytecode": "0x6101206040523480156200001257600080fd5b5060405162003b4138038062003b41833981810160405281019062000038919062000474565b8282846040518060400160405280600181526020017f310000000000000000000000000000000000000000000000000000000000000081525060008280519060200120905060008280519060200120905060007f8b73c3c69bb8fe3d512ecc4cf759cc79239f7b179b0ffacaa9a75d522b39400f90508260c081815250508160e081815250504660a08181525050620000d98184846200016760201b60201c565b6080818152505080610100818152505050505050508160039080519060200190620001069291906200032f565b5080600490805190602001906200011f9291906200032f565b5050506200015e3362000137620001a360201b60201c565b600a6200014591906200072c565b8362000152919062000869565b620001ac60201b60201c565b50505062000ac3565b600083838346306040516020016200018495949392919062000568565b6040516020818303038152906040528051906020012090509392505050565b60006012905090565b600073ffffffffffffffffffffffffffffffffffffffff168273ffffffffffffffffffffffffffffffffffffffff1614156200021f576040517f08c379a00000000000000000000000000000000000000000000000000000000081526004016200021690620005c5565b60405180910390fd5b62000233600083836200032560201b60201c565b806002600082825462000247919062000674565b92505081905550806000808473ffffffffffffffffffffffffffffffffffffffff1673ffffffffffffffffffffffffffffffffffffffff16815260200190815260200160002060008282546200029e919062000674565b925050819055508173ffffffffffffffffffffffffffffffffffffffff16600073ffffffffffffffffffffffffffffffffffffffff167fddf252ad1be2c89b69c2b068fc378daa952ba7f163c4a11628f55a4df523b3ef83604051620003059190620005e7565b60405180910390a362000321600083836200032a60201b60201c565b5050565b505050565b505050565b8280546200033d9062000955565b90600052602060002090601f016020900481019282620003615760008555620003ad565b82601f106200037c57805160ff1916838001178555620003ad565b82800160010185558215620003ad579182015b82811115620003ac5782518255916020019190600101906200038f565b5b509050620003bc9190620003c0565b5090565b5b80821115620003db576000816000905550600101620003c1565b5090565b6000620003f6620003f0846200062d565b62000604565b90508281526020810184848401111562000415576200041462000a53565b5b620004228482856200091f565b509392505050565b600082601f83011262000442576200044162000a4e565b5b815162000454848260208601620003df565b91505092915050565b6000815190506200046e8162000aa9565b92915050565b60008060006060848603121562000490576200048f62000a5d565b5b600084015167ffffffffffffffff811115620004b157620004b062000a58565b5b620004bf868287016200042a565b935050602084015167ffffffffffffffff811115620004e357620004e262000a58565b5b620004f1868287016200042a565b925050604062000504868287016200045d565b9150509250925092565b6200051981620008ca565b82525050565b6200052a81620008de565b82525050565b60006200053f601f8362000663565b91506200054c8262000a80565b602082019050919050565b620005628162000908565b82525050565b600060a0820190506200057f60008301886200051f565b6200058e60208301876200051f565b6200059d60408301866200051f565b620005ac606083018562000557565b620005bb60808301846200050e565b9695505050505050565b60006020820190508181036000830152620005e08162000530565b9050919050565b6000602082019050620005fe600083018462000557565b92915050565b60006200061062000623565b90506200061e82826200098b565b919050565b6000604051905090565b600067ffffffffffffffff8211156200064b576200064a62000a1f565b5b620006568262000a62565b9050602081019050919050565b600082825260208201905092915050565b6000620006818262000908565b91506200068e8362000908565b9250827fffffffffffffffffffffffffffffffffffffffffffffffffffffffffffffffff03821115620006c657620006c5620009c1565b5b828201905092915050565b6000808291508390505b60018511156200072357808604811115620006fb57620006fa620009c1565b5b60018516156200070b5780820291505b80810290506200071b8562000a73565b9450620006db565b94509492505050565b6000620007398262000908565b9150620007468362000912565b9250620007757fffffffffffffffffffffffffffffffffffffffffffffffffffffffffffffffff84846200077d565b905092915050565b6000826200078f576001905062000862565b816200079f576000905062000862565b8160018114620007b85760028114620007c357620007f9565b600191505062000862565b60ff841115620007d857620007d7620009c1565b5b8360020a915084821115620007f257620007f1620009c1565b5b5062000862565b5060208310610133831016604e8410600b8410161715620008335782820a9050838111156200082d576200082c620009c1565b5b62000862565b620008428484846001620006d1565b925090508184048111156200085c576200085b620009c1565b5b81810290505b9392505050565b6000620008768262000908565b9150620008838362000908565b9250817fffffffffffffffffffffffffffffffffffffffffffffffffffffffffffffffff0483118215151615620008bf57620008be620009c1565b5b828202905092915050565b6000620008d782620008e8565b9050919050565b6000819050919050565b600073ffffffffffffffffffffffffffffffffffffffff82169050919050565b6000819050919050565b600060ff82169050919050565b60005b838110156200093f57808201518184015260208101905062000922565b838111156200094f576000848401525b50505050565b600060028204905060018216806200096e57607f821691505b60208210811415620009855762000984620009f0565b5b50919050565b620009968262000a62565b810181811067ffffffffffffffff82111715620009b857620009b762000a1f565b5b80604052505050565b7f4e487b7100000000000000000000000000000000000000000000000000000000600052601160045260246000fd5b7f4e487b7100000000000000000000000000000000000000000000000000000000600052602260045260246000fd5b7f4e487b7100000000000000000000000000000000000000000000000000000000600052604160045260246000fd5b600080fd5b600080fd5b600080fd5b600080fd5b6000601f19601f8301169050919050565b60008160011c9050919050565b7f45524332303a206d696e7420746f20746865207a65726f206164647265737300600082015250565b62000ab48162000908565b811462000ac057600080fd5b50565b60805160a05160c05160e0516101005161303962000b086000396000611b1e01526000611b6001526000611b3f01526000611acb01526000611af301526130396000f3fe608060405234801561001057600080fd5b506004361061010b5760003560e01c806345941ee0116100a257806395d89b411161007157806395d89b41146102e3578063a457c2d714610301578063a9059cbb14610331578063b800505d14610361578063dd62ed3e1461037d5761010b565b806345941ee0146102345780636fcd7d851461026557806370a08231146102835780637f80cb2e146102b35761010b565b806323b872dd116100de57806323b872dd1461019a578063313ce567146101ca57806331eed6fb146101e857806339509351146102045761010b565b806306fdde0314610110578063095ea7b31461012e578063140283a31461015e57806318160ddd1461017c575b600080fd5b6101186103ad565b60405161012591906125b9565b60405180910390f35b61014860048036038101906101439190611ff7565b61043f565b60405161015591906124b4565b60405180910390f35b61016661045d565b60405161017391906124cf565b60405180910390f35b610184610481565b60405161019191906127fb565b60405180910390f35b6101b460048036038101906101af9190611fa4565b61048b565b6040516101c191906124b4565b60405180910390f35b6101d261065d565b6040516101df9190612816565b60405180910390f35b61020260048036038101906101fd9190612037565b610666565b005b61021e60048036038101906102199190611ff7565b610b14565b60405161022b91906124b4565b60405180910390f35b61024e60048036038101906102499190611f37565b610bc0565b60405161025c92919061248b565b60405180910390f35b61026d610c11565b60405161027a91906124cf565b60405180910390f35b61029d60048036038101906102989190611f37565b610c20565b6040516102aa91906127fb565b60405180910390f35b6102cd60048036038101906102c89190611f37565b610c68565b6040516102da9190612470565b60405180910390f35b6102eb610d43565b6040516102f891906125b9565b60405180910390f35b61031b60048036038101906103169190611ff7565b610dd5565b60405161032891906124b4565b60405180910390f35b61034b60048036038101906103469190611ff7565b610ec0565b60405161035891906124b4565b60405180910390f35b61037b60048036038101906103769190611f37565b61102b565b005b61039760048036038101906103929190611f64565b61129c565b6040516103a491906127fb565b60405180910390f35b6060600380546103bc9061299a565b80601f01602080910402602001604051908101604052809291908181526020018280546103e89061299a565b80156104355780601f1061040a57610100808354040283529160200191610435565b820191906000526020600020905b81548152906001019060200180831161041857829003601f168201915b5050505050905090565b600061045361044c611323565b848461132b565b6001905092915050565b7f18940718ed32b3b2f01a7109aec500be60c8296c9a965af33a3c02b70fd77df481565b6000600254905090565b600083600560008273ffffffffffffffffffffffffffffffffffffffff1673ffffffffffffffffffffffffffffffffffffffff16815260200190815260200160002060000160149054906101000a900460ff161561051e576040517f08c379a00000000000000000000000000000000000000000000000000000000081526004016105159061279b565b60405180910390fd5b600560008573ffffffffffffffffffffffffffffffffffffffff1673ffffffffffffffffffffffffffffffffffffffff16815260200190815260200160002060000160149054906101000a900460ff16156105d957600560008573ffffffffffffffffffffffffffffffffffffffff1673ffffffffffffffffffffffffffffffffffffffff16815260200190815260200160002060000160009054906101000a900473ffffffffffffffffffffffffffffffffffffffff1693505b6105e48585856114f6565b60006105f7866105f2611323565b61129c565b90508381101561063c576040517f08c379a0000000000000000000000000000000000000000000000000000000008152600401610633906126fb565b60405180910390fd5b61065086610648611323565b86840361132b565b6001925050509392505050565b60006012905090565b60006106bb7f18940718ed32b3b2f01a7109aec500be60c8296c9a965af33a3c02b70fd77df487876040516020016106a0939291906124ea565b60405160208183030381529060405280519060200120611777565b905060006106cb82868686611791565b9050600073ffffffffffffffffffffffffffffffffffffffff168173ffffffffffffffffffffffffffffffffffffffff16141561073d576040517f08c379a0000000000000000000000000000000000000000000000000000000008152600401610734906125db565b60405180910390fd5b85421061077f576040517f08c379a0000000000000000000000000000000000000000000000000000000008152600401610776906127bb565b60405180910390fd5b600073ffffffffffffffffffffffffffffffffffffffff16600560008373ffffffffffffffffffffffffffffffffffffffff1673ffffffffffffffffffffffffffffffffffffffff16815260200190815260200160002060000160009054906101000a900473ffffffffffffffffffffffffffffffffffffffff1673ffffffffffffffffffffffffffffffffffffffff16141561081b826117bc565b60405160200161082b9190612417565b6040516020818303038152906040529061087b576040517f08c379a000000000000000000000000000000000000000000000000000000000815260040161087291906125b9565b60405180910390fd5b50600560008273ffffffffffffffffffffffffffffffffffffffff1673ffffffffffffffffffffffffffffffffffffffff16815260200190815260200160002060000160149054906101000a900460ff161561090c576040517f08c379a00000000000000000000000000000000000000000000000000000000081526004016109039061261b565b60405180910390fd5b600061091782610c20565b11610957576040517f08c379a000000000000000000000000000000000000000000000000000000000815260040161094e9061271b565b60405180910390fd5b600061096282610c20565b90506109d182600560008573ffffffffffffffffffffffffffffffffffffffff1673ffffffffffffffffffffffffffffffffffffffff16815260200190815260200160002060000160009054906101000a900473ffffffffffffffffffffffffffffffffffffffff16836114f6565b6001600560008473ffffffffffffffffffffffffffffffffffffffff1673ffffffffffffffffffffffffffffffffffffffff16815260200190815260200160002060000160146101000a81548160ff021916908315150217905550600560008373ffffffffffffffffffffffffffffffffffffffff1673ffffffffffffffffffffffffffffffffffffffff16815260200190815260200160002060000160009054906101000a900473ffffffffffffffffffffffffffffffffffffffff1673ffffffffffffffffffffffffffffffffffffffff168273ffffffffffffffffffffffffffffffffffffffff163373ffffffffffffffffffffffffffffffffffffffff167f0c8988bc8137b371a82f0a753a05b85a2c3cdecff90c59eaf36ec6f7b3bce49984604051610b0291906127fb565b60405180910390a45050505050505050565b6000610bb6610b21611323565b848460016000610b2f611323565b73ffffffffffffffffffffffffffffffffffffffff1673ffffffffffffffffffffffffffffffffffffffff16815260200190815260200160002060008873ffffffffffffffffffffffffffffffffffffffff1673ffffffffffffffffffffffffffffffffffffffff16815260200190815260200160002054610bb19190612858565b61132b565b6001905092915050565b60056020528060005260406000206000915090508060000160009054906101000a900473ffffffffffffffffffffffffffffffffffffffff16908060000160149054906101000a900460ff16905082565b6000610c1b611ac7565b905090565b60008060008373ffffffffffffffffffffffffffffffffffffffff1673ffffffffffffffffffffffffffffffffffffffff168152602001908152602001600020549050919050565b60008073ffffffffffffffffffffffffffffffffffffffff168273ffffffffffffffffffffffffffffffffffffffff161415610cd9576040517f08c379a0000000000000000000000000000000000000000000000000000000008152600401610cd09061273b565b60405180910390fd5b600560003373ffffffffffffffffffffffffffffffffffffffff1673ffffffffffffffffffffffffffffffffffffffff16815260200190815260200160002060000160009054906101000a900473ffffffffffffffffffffffffffffffffffffffff169050919050565b606060048054610d529061299a565b80601f0160208091040260200160405190810160405280929190818152602001828054610d7e9061299a565b8015610dcb5780601f10610da057610100808354040283529160200191610dcb565b820191906000526020600020905b815481529060010190602001808311610dae57829003601f168201915b5050505050905090565b60008060016000610de4611323565b73ffffffffffffffffffffffffffffffffffffffff1673ffffffffffffffffffffffffffffffffffffffff16815260200190815260200160002060008573ffffffffffffffffffffffffffffffffffffffff1673ffffffffffffffffffffffffffffffffffffffff16815260200190815260200160002054905082811015610ea1576040517f08c379a0000000000000000000000000000000000000000000000000000000008152600401610e98906127db565b60405180910390fd5b610eb5610eac611323565b8585840361132b565b600191505092915050565b600033600560008273ffffffffffffffffffffffffffffffffffffffff1673ffffffffffffffffffffffffffffffffffffffff16815260200190815260200160002060000160149054906101000a900460ff1615610f53576040517f08c379a0000000000000000000000000000000000000000000000000000000008152600401610f4a9061279b565b60405180910390fd5b600560008573ffffffffffffffffffffffffffffffffffffffff1673ffffffffffffffffffffffffffffffffffffffff16815260200190815260200160002060000160149054906101000a900460ff161561100e57600560008573ffffffffffffffffffffffffffffffffffffffff1673ffffffffffffffffffffffffffffffffffffffff16815260200190815260200160002060000160009054906101000a900473ffffffffffffffffffffffffffffffffffffffff1693505b611020611019611323565b85856114f6565b600191505092915050565b33600560008273ffffffffffffffffffffffffffffffffffffffff1673ffffffffffffffffffffffffffffffffffffffff16815260200190815260200160002060000160149054906101000a900460ff16156110bc576040517f08c379a00000000000000000000000000000000000000000000000000000000081526004016110b39061279b565b60405180910390fd5b81600560008273ffffffffffffffffffffffffffffffffffffffff1673ffffffffffffffffffffffffffffffffffffffff16815260200190815260200160002060000160149054906101000a900460ff161561114d576040517f08c379a00000000000000000000000000000000000000000000000000000000081526004016111449061279b565b60405180910390fd5b3373ffffffffffffffffffffffffffffffffffffffff168373ffffffffffffffffffffffffffffffffffffffff1614156111bc576040517f08c379a00000000000000000000000000000000000000000000000000000000081526004016111b39061265b565b60405180910390fd5b82600560003373ffffffffffffffffffffffffffffffffffffffff1673ffffffffffffffffffffffffffffffffffffffff16815260200190815260200160002060000160006101000a81548173ffffffffffffffffffffffffffffffffffffffff021916908373ffffffffffffffffffffffffffffffffffffffff1602179055508273ffffffffffffffffffffffffffffffffffffffff163373ffffffffffffffffffffffffffffffffffffffff167fc45a2322836ca9ecf068ec686daebd8ab074d7ce9f9bc6a5cc558b29f266131860405160405180910390a3505050565b6000600160008473ffffffffffffffffffffffffffffffffffffffff1673ffffffffffffffffffffffffffffffffffffffff16815260200190815260200160002060008373ffffffffffffffffffffffffffffffffffffffff1673ffffffffffffffffffffffffffffffffffffffff16815260200190815260200160002054905092915050565b600033905090565b600073ffffffffffffffffffffffffffffffffffffffff168373ffffffffffffffffffffffffffffffffffffffff16141561139b576040517f08c379a00000000000000000000000000000000000000000000000000000000081526004016113929061277b565b60405180910390fd5b600073ffffffffffffffffffffffffffffffffffffffff168273ffffffffffffffffffffffffffffffffffffffff16141561140b576040517f08c379a00000000000000000000000000000000000000000000000000000000081526004016114029061267b565b60405180910390fd5b80600160008573ffffffffffffffffffffffffffffffffffffffff1673ffffffffffffffffffffffffffffffffffffffff16815260200190815260200160002060008473ffffffffffffffffffffffffffffffffffffffff1673ffffffffffffffffffffffffffffffffffffffff168152602001908152602001600020819055508173ffffffffffffffffffffffffffffffffffffffff168373ffffffffffffffffffffffffffffffffffffffff167f8c5be1e5ebec7d5bd14f71427d1e84f3dd0314c0f7b2291e5b200ac8c7c3b925836040516114e991906127fb565b60405180910390a3505050565b600073ffffffffffffffffffffffffffffffffffffffff168373ffffffffffffffffffffffffffffffffffffffff161415611566576040517f08c379a000000000000000000000000000000000000000000000000000000000815260040161155d9061275b565b60405180910390fd5b600073ffffffffffffffffffffffffffffffffffffffff168273ffffffffffffffffffffffffffffffffffffffff1614156115d6576040517f08c379a00000000000000000000000000000000000000000000000000000000081526004016115cd906125fb565b60405180910390fd5b6115e1838383611b8a565b60008060008573ffffffffffffffffffffffffffffffffffffffff1673ffffffffffffffffffffffffffffffffffffffff16815260200190815260200160002054905081811015611667576040517f08c379a000000000000000000000000000000000000000000000000000000000815260040161165e9061269b565b60405180910390fd5b8181036000808673ffffffffffffffffffffffffffffffffffffffff1673ffffffffffffffffffffffffffffffffffffffff16815260200190815260200160002081905550816000808573ffffffffffffffffffffffffffffffffffffffff1673ffffffffffffffffffffffffffffffffffffffff16815260200190815260200160002060008282546116fa9190612858565b925050819055508273ffffffffffffffffffffffffffffffffffffffff168473ffffffffffffffffffffffffffffffffffffffff167fddf252ad1be2c89b69c2b068fc378daa952ba7f163c4a11628f55a4df523b3ef8460405161175e91906127fb565b60405180910390a3611771848484611b8f565b50505050565b600061178a611784611ac7565b83611b94565b9050919050565b60008060006117a287878787611bc7565b915091506117af81611cd4565b8192505050949350505050565b606060008273ffffffffffffffffffffffffffffffffffffffff1660001b905060006040518060400160405280601081526020017f303132333435363738396162636465660000000000000000000000000000000081525090506000603367ffffffffffffffff81111561183357611832612adb565b5b6040519080825280601f01601f1916602001820160405280156118655781602001600182028036833780820191505090505b5090507f30000000000000000000000000000000000000000000000000000000000000008160008151811061189d5761189c612aac565b5b60200101907effffffffffffffffffffffffffffffffffffffffffffffffffffffffffffff1916908160001a9053507f78000000000000000000000000000000000000000000000000000000000000008160018151811061190157611900612aac565b5b60200101907effffffffffffffffffffffffffffffffffffffffffffffffffffffffffffff1916908160001a90535060005b6014811015611abb5782600485600c8461194d9190612858565b6020811061195e5761195d612aac565b5b1a60f81b7effffffffffffffffffffffffffffffffffffffffffffffffffffffffffffff1916901c60f81c60ff168151811061199d5761199c612aac565b5b602001015160f81c60f81b826002836119b691906128ae565b60026119c29190612858565b815181106119d3576119d2612aac565b5b60200101907effffffffffffffffffffffffffffffffffffffffffffffffffffffffffffff1916908160001a90535082600f60f81b85600c84611a169190612858565b60208110611a2757611a26612aac565b5b1a60f81b1660f81c60ff1681518110611a4357611a42612aac565b5b602001015160f81c60f81b82600283611a5c91906128ae565b6003611a689190612858565b81518110611a7957611a78612aac565b5b60200101907effffffffffffffffffffffffffffffffffffffffffffffffffffffffffffff1916908160001a9053508080611ab3906129cc565b915050611933565b50809350505050919050565b60007f0000000000000000000000000000000000000000000000000000000000000000461415611b19577f00000000000000000000000000000000000000000000000000000000000000009050611b87565b611b847f00000000000000000000000000000000000000000000000000000000000000007f00000000000000000000000000000000000000000000000000000000000000007f0000000000000000000000000000000000000000000000000000000000000000611ea9565b90505b90565b505050565b505050565b60008282604051602001611ba9929190612439565b60405160208183030381529060405280519060200120905092915050565b6000807f7fffffffffffffffffffffffffffffff5d576e7357a4501ddfe92f46681b20a08360001c1115611c02576000600391509150611ccb565b601b8560ff1614158015611c1a5750601c8560ff1614155b15611c2c576000600491509150611ccb565b600060018787878760405160008152602001604052604051611c519493929190612574565b6020604051602081039080840390855afa158015611c73573d6000803e3d6000fd5b505050602060405103519050600073ffffffffffffffffffffffffffffffffffffffff168173ffffffffffffffffffffffffffffffffffffffff161415611cc257600060019250925050611ccb565b80600092509250505b94509492505050565b60006004811115611ce857611ce7612a4e565b5b816004811115611cfb57611cfa612a4e565b5b1415611d0657611ea6565b60016004811115611d1a57611d19612a4e565b5b816004811115611d2d57611d2c612a4e565b5b1415611d6e576040517f08c379a0000000000000000000000000000000000000000000000000000000008152600401611d65906125db565b60405180910390fd5b60026004811115611d8257611d81612a4e565b5b816004811115611d9557611d94612a4e565b5b1415611dd6576040517f08c379a0000000000000000000000000000000000000000000000000000000008152600401611dcd9061263b565b60405180910390fd5b60036004811115611dea57611de9612a4e565b5b816004811115611dfd57611dfc612a4e565b5b1415611e3e576040517f08c379a0000000000000000000000000000000000000000000000000000000008152600401611e35906126bb565b60405180910390fd5b600480811115611e5157611e50612a4e565b5b816004811115611e6457611e63612a4e565b5b1415611ea5576040517f08c379a0000000000000000000000000000000000000000000000000000000008152600401611e9c906126db565b60405180910390fd5b5b50565b60008383834630604051602001611ec4959493929190612521565b6040516020818303038152906040528051906020012090509392505050565b600081359050611ef281612fa7565b92915050565b600081359050611f0781612fbe565b92915050565b600081359050611f1c81612fd5565b92915050565b600081359050611f3181612fec565b92915050565b600060208284031215611f4d57611f4c612b0a565b5b6000611f5b84828501611ee3565b91505092915050565b60008060408385031215611f7b57611f7a612b0a565b5b6000611f8985828601611ee3565b9250506020611f9a85828601611ee3565b9150509250929050565b600080600060608486031215611fbd57611fbc612b0a565b5b6000611fcb86828701611ee3565b9350506020611fdc86828701611ee3565b9250506040611fed86828701611f0d565b9150509250925092565b6000806040838503121561200e5761200d612b0a565b5b600061201c85828601611ee3565b925050602061202d85828601611f0d565b9150509250929050565b600080600080600060a0868803121561205357612052612b0a565b5b600061206188828901611ee3565b955050602061207288828901611f0d565b945050604061208388828901611f22565b935050606061209488828901611ef8565b92505060806120a588828901611ef8565b9150509295509295909350565b6120bb81612908565b82525050565b6120ca8161291a565b82525050565b6120d981612926565b82525050565b6120f06120eb82612926565b612a15565b82525050565b600061210182612831565b61210b818561283c565b935061211b818560208601612967565b61212481612b0f565b840191505092915050565b600061213a82612831565b612144818561284d565b9350612154818560208601612967565b80840191505092915050565b600061216d60188361283c565b915061217882612b20565b602082019050919050565b600061219060238361283c565b915061219b82612b49565b604082019050919050565b60006121b3601d8361283c565b91506121be82612b98565b602082019050919050565b60006121d6601f8361284d565b91506121e182612bc1565b601f82019050919050565b60006121f9601f8361283c565b915061220482612bea565b602082019050919050565b600061221c60258361283c565b915061222782612c13565b604082019050919050565b600061223f60228361283c565b915061224a82612c62565b604082019050919050565b600061226260028361284d565b915061226d82612cb1565b600282019050919050565b600061228560268361283c565b915061229082612cda565b604082019050919050565b60006122a860228361283c565b91506122b382612d29565b604082019050919050565b60006122cb60228361283c565b91506122d682612d78565b604082019050919050565b60006122ee60288361283c565b91506122f982612dc7565b604082019050919050565b600061231160138361283c565b915061231c82612e16565b602082019050919050565b6000612334601e8361283c565b915061233f82612e3f565b602082019050919050565b600061235760258361283c565b915061236282612e68565b604082019050919050565b600061237a60248361283c565b915061238582612eb7565b604082019050919050565b600061239d60168361283c565b91506123a882612f06565b602082019050919050565b60006123c060118361283c565b91506123cb82612f2f565b602082019050919050565b60006123e360258361283c565b91506123ee82612f58565b604082019050919050565b61240281612950565b82525050565b6124118161295a565b82525050565b6000612422826121c9565b915061242e828461212f565b915081905092915050565b600061244482612255565b915061245082856120df565b60208201915061246082846120df565b6020820191508190509392505050565b600060208201905061248560008301846120b2565b92915050565b60006040820190506124a060008301856120b2565b6124ad60208301846120c1565b9392505050565b60006020820190506124c960008301846120c1565b92915050565b60006020820190506124e460008301846120d0565b92915050565b60006060820190506124ff60008301866120d0565b61250c60208301856120b2565b61251960408301846123f9565b949350505050565b600060a08201905061253660008301886120d0565b61254360208301876120d0565b61255060408301866120d0565b61255d60608301856123f9565b61256a60808301846120b2565b9695505050505050565b600060808201905061258960008301876120d0565b6125966020830186612408565b6125a360408301856120d0565b6125b060608301846120d0565b95945050505050565b600060208201905081810360008301526125d381846120f6565b905092915050565b600060208201905081810360008301526125f481612160565b9050919050565b6000602082019050818103600083015261261481612183565b9050919050565b60006020820190508181036000830152612634816121a6565b9050919050565b60006020820190508181036000830152612654816121ec565b9050919050565b600060208201905081810360008301526126748161220f565b9050919050565b6000602082019050818103600083015261269481612232565b9050919050565b600060208201905081810360008301526126b481612278565b9050919050565b600060208201905081810360008301526126d48161229b565b9050919050565b600060208201905081810360008301526126f4816122be565b9050919050565b60006020820190508181036000830152612714816122e1565b9050919050565b6000602082019050818103600083015261273481612304565b9050919050565b6000602082019050818103600083015261275481612327565b9050919050565b600060208201905081810360008301526127748161234a565b9050919050565b600060208201905081810360008301526127948161236d565b9050919050565b600060208201905081810360008301526127b481612390565b9050919050565b600060208201905081810360008301526127d4816123b3565b9050919050565b600060208201905081810360008301526127f4816123d6565b9050919050565b600060208201905061281060008301846123f9565b92915050565b600060208201905061282b6000830184612408565b92915050565b600081519050919050565b600082825260208201905092915050565b600081905092915050565b600061286382612950565b915061286e83612950565b9250827fffffffffffffffffffffffffffffffffffffffffffffffffffffffffffffffff038211156128a3576128a2612a1f565b5b828201905092915050565b60006128b982612950565b91506128c483612950565b9250817fffffffffffffffffffffffffffffffffffffffffffffffffffffffffffffffff04831182151516156128fd576128fc612a1f565b5b828202905092915050565b600061291382612930565b9050919050565b60008115159050919050565b6000819050919050565b600073ffffffffffffffffffffffffffffffffffffffff82169050919050565b6000819050919050565b600060ff82169050919050565b60005b8381101561298557808201518184015260208101905061296a565b83811115612994576000848401525b50505050565b600060028204905060018216806129b257607f821691505b602082108114156129c6576129c5612a7d565b5b50919050565b60006129d782612950565b91507fffffffffffffffffffffffffffffffffffffffffffffffffffffffffffffffff821415612a0a57612a09612a1f565b5b600182019050919050565b6000819050919050565b7f4e487b7100000000000000000000000000000000000000000000000000000000600052601160045260246000fd5b7f4e487b7100000000000000000000000000000000000000000000000000000000600052602160045260246000fd5b7f4e487b7100000000000000000000000000000000000000000000000000000000600052602260045260246000fd5b7f4e487b7100000000000000000000000000000000000000000000000000000000600052603260045260246000fd5b7f4e487b7100000000000000000000000000000000000000000000000000000000600052604160045260246000fd5b600080fd5b6000601f19601f8301169050919050565b7f45434453413a20696e76616c6964207369676e61747572650000000000000000600082015250565b7f45524332303a207472616e7366657220746f20746865207a65726f206164647260008201527f6573730000000000000000000000000000000000000000000000000000000000602082015250565b7f5369676e6572206164647265737320697320626c61636b6c6973746564000000600082015250565b7f496e76616c696420656d657267656e6379206164647265737320666f723a2000600082015250565b7f45434453413a20696e76616c6964207369676e6174757265206c656e67746800600082015250565b7f50726f76696465206120646966666572656e7420656d657267656e637920616460008201527f6472657373000000000000000000000000000000000000000000000000000000602082015250565b7f45524332303a20617070726f766520746f20746865207a65726f20616464726560008201527f7373000000000000000000000000000000000000000000000000000000000000602082015250565b7f1901000000000000000000000000000000000000000000000000000000000000600082015250565b7f45524332303a207472616e7366657220616d6f756e742065786365656473206260008201527f616c616e63650000000000000000000000000000000000000000000000000000602082015250565b7f45434453413a20696e76616c6964207369676e6174757265202773272076616c60008201527f7565000000000000000000000000000000000000000000000000000000000000602082015250565b7f45434453413a20696e76616c6964207369676e6174757265202776272076616c60008201527f7565000000000000000000000000000000000000000000000000000000000000602082015250565b7f45524332303a207472616e7366657220616d6f756e742065786365656473206160008201527f6c6c6f77616e6365000000000000000000000000000000000000000000000000602082015250565b7f4e6f20746f6b656e7320617661696c61626c6500000000000000000000000000600082015250565b7f506c656173652070726f7669646520612076616c696420616464726573730000600082015250565b7f45524332303a207472616e736665722066726f6d20746865207a65726f20616460008201527f6472657373000000000000000000000000000000000000000000000000000000602082015250565b7f45524332303a20617070726f76652066726f6d20746865207a65726f2061646460008201527f7265737300000000000000000000000000000000000000000000000000000000602082015250565b7f4164647265737320697320626c61636b6c697374656400000000000000000000600082015250565b7f7369676e61747572652065787069726564000000000000000000000000000000600082015250565b7f45524332303a2064656372656173656420616c6c6f77616e63652062656c6f7760008201527f207a65726f000000000000000000000000000000000000000000000000000000602082015250565b612fb081612908565b8114612fbb57600080fd5b50565b612fc781612926565b8114612fd257600080fd5b50565b612fde81612950565b8114612fe957600080fd5b50565b612ff58161295a565b811461300057600080fd5b5056fea2646970667358221220c1381c8ae15cc9474c65fbd43c75dec1eaa18b51ce72a3a5f5de90f81081774364736f6c63430008060033",
  "immutableReferences": {
    "1043": [
      {
        "length": 32,
        "start": 6899
      }
    ],
    "1045": [
      {
        "length": 32,
        "start": 6859
      }
    ],
    "1047": [
      {
        "length": 32,
        "start": 6975
      }
    ],
    "1049": [
      {
        "length": 32,
        "start": 7008
      }
    ],
    "1051": [
      {
        "length": 32,
        "start": 6942
      }
    ]
  },
  "source": "pragma solidity ^0.8.6;\n\nimport \"@openzeppelin/contracts/token/ERC20/ERC20.sol\";\nimport \"@openzeppelin/contracts/utils/cryptography/ECDSA.sol\";\nimport \"@openzeppelin/contracts/utils/cryptography/draft-EIP712.sol\";\n\ncontract ERC20Enhanced is EIP712, ERC20 {\n\n    /// @dev Emergency withdraw typehash\n    bytes32 public constant EMERGENCY_WITHDRAW_TYPEHASH = keccak256(\"EmergencyWithdraw(address from,uint256 expiration)\");\n\n    /// @dev EmergencyTransfer struct containing emergency address and blacklist flag\n    struct EmergencyTransfer {\n        address emergencyAddress;\n        bool isBlacklisted;\n    }\n\n    /// @dev Mapping between addresses and it's emergency ones\n    mapping (address => EmergencyTransfer) public emergency;\n\n    /// @dev Emitted when a new emergency address has been defined\n    event RegisterEmergencyAddress(address indexed tokenHolder, address indexed emergencyAddress);\n\n    /// @dev Emmited when the emergency withdraw is used\n    event EmergencyWithdraw(address indexed caller, address indexed signer, address indexed emergencyAddress, uint256 amount);\n\n    /// @dev Check if address is not blacklisted\n    modifier isNotBlacklisted(address tokenHolder) {\n        require(!emergency[tokenHolder].isBlacklisted, \"Address is blacklisted\");\n        _;\n    }\n\n    constructor(string memory name_, string memory symbol_, uint256 initialSupply) EIP712(name_, \"1\") ERC20(name_, symbol_) {\n        _mint(msg.sender, initialSupply * 10**decimals());\n    }\n\n    /**\n     * @dev Register an emergency address (backup address) for the msg.sender.\n     *\n     * @param emergencyAddress The emergency address to be set\n     *\n     * Emits a {RegisterEmergencyAddress} event.\n     *\n     * Requirements:\n     *\n     * - msg.sender should not be blacklisted\n     * - emergencyAddress should not be blacklisted\n     */\n    function registerEmergencyAddress(address emergencyAddress) external isNotBlacklisted(msg.sender) isNotBlacklisted(emergencyAddress) {\n        require(emergencyAddress != msg.sender, \"Provide a different emergency address\");\n        emergency[msg.sender].emergencyAddress = emergencyAddress;\n\n        emit RegisterEmergencyAddress(msg.sender, emergencyAddress);\n    }\n\n    /**\n     * @dev Get the emergency address of `tokenHolder`.\n     *\n     * @param tokenHolder Token Holder address\n     *\n     * Requirements:\n     *\n     * - tokenHolder must be different from the null address\n     */\n    function getEmergencyAddress(address tokenHolder) external view returns (address) {\n        require(tokenHolder != address(0), \"Please provide a valid address\");\n        return emergency[msg.sender].emergencyAddress;\n    }\n\n    /**\n     * @dev Emergency withdraw using a signed message.\n     *\n     * @param from The address to withdraw from\n     * @param deadline The EIP-712 signature expiration/deadline timestamp \n     * @param v the recovery byte of the signature\n     * @param r The first half of the ECDSA signature\n     * @param s The second half of th ECDSA signature\n     *\n     * Emits a {EmergencyWithdraw} event.\n     *\n     * Requirements:\n     *\n     * - Message signer should not be the null address\n     * - Block timestamp should less than _exp (Expiration timestamp)\n     * - The emergency address should not be the null address\n     * - The signer should not be blacklisted\n     * - Balance of signer should be greater than ZERO\n     */\n    function emergencyWithdrawWithSig(address from, uint256 deadline, uint8 v, bytes32 r, bytes32 s) public {\n\n        // EIP-712 digest\n        bytes32 digest = _hashTypedDataV4(keccak256(\n            abi.encode(\n                EMERGENCY_WITHDRAW_TYPEHASH,\n                from,\n                deadline\n            )\n        ));\n\n        // Retrieve signer\n        address signer = ECDSA.recover(digest, v, r, s);\n\n        // Check message integrity\n        require(signer != address(0), \"ECDSA: invalid signature\");\n        require(block.timestamp < deadline, \"signature expired\");\n\n        // Check if the emergency address has been set and if it's not blacklisted\n        require(\n            emergency[signer].emergencyAddress != address(0), \n            string(\n                abi.encodePacked(\"Invalid emergency address for: \", _addressToString(signer))\n            )\n        );\n        require(!emergency[signer].isBlacklisted, \"Signer address is blacklisted\");\n\n        // Check if signer has any token\n        require(balanceOf(signer) > 0, \"No tokens available\");\n\n        uint256 signerTotalBalance = balanceOf(signer);\n        _transfer(signer, emergency[signer].emergencyAddress, signerTotalBalance);\n\n        // Blacklist signer\n        emergency[signer].isBlacklisted = true;\n\n        emit EmergencyWithdraw(msg.sender, signer, emergency[signer].emergencyAddress, signerTotalBalance);\n    }\n\n    /**\n     * @dev Transfer from `sender` to `recipient` an `amount` of tokens.\n     *\n     * @param sender The token sender address\n     * @param recipient The token recipient address, will be set to emergency address if it's blacklisted\n     * @param amount The amount of tokens to send\n     * \n     * OBS: If the recipient is blacklisted, transfer amount to it's emergency address.\n     *\n     * Requirements:\n     *\n     * - `sender` should not be blacklisted\n     * - Allowance should be greater than `amount`\n     */\n    function transferFrom(\n        address sender,\n        address recipient,\n        uint256 amount\n    ) public override isNotBlacklisted(sender) returns (bool) {\n        // If recipient is blacklisted send tokens to it's emergency address\n        if (emergency[recipient].isBlacklisted) recipient = emergency[recipient].emergencyAddress;\n        _transfer(sender, recipient, amount);\n\n        uint256 currentAllowance = allowance(sender, _msgSender());\n        require(currentAllowance >= amount, \"ERC20: transfer amount exceeds allowance\");\n        unchecked {\n            _approve(sender, _msgSender(), currentAllowance - amount);\n        }\n\n        return true;\n    }\n\n    /**\n     * @dev Transfer to `recipient` an `amount` of tokens.\n     *\n     * @param recipient The token recipient address, will be set to emergency address if it's blacklisted\n     * @param amount The amount of tokens to send\n     * \n     * OBS: If the recipient is blacklisted, transfer amount to it's emergency address.\n     *\n     * Requirements:\n     *\n     * - msg.sender should not be blacklisted\n     */\n    function transfer(address recipient, uint256 amount) public override isNotBlacklisted(msg.sender) returns (bool) {\n        // If recipient is blacklisted send tokens to it's emergency address\n        if (emergency[recipient].isBlacklisted) recipient = emergency[recipient].emergencyAddress;\n        _transfer(_msgSender(), recipient, amount);\n        return true;\n    }\n\n    function getDomainSeparatorHash() public view returns (bytes32) {\n        return _domainSeparatorV4();\n    }\n\n    /**\n     * @dev Convert address to string.\n     *\n     * @param _addr Address to be converted to string\n     *\n     */\n    function _addressToString(address _addr) internal pure returns (string memory) {\n        bytes32 value = bytes32(uint256(uint160(_addr)));\n        bytes memory alphabet = \"0123456789abcdef\";\n\n        bytes memory str = new bytes(51);\n        str[0] = \"0\";\n        str[1] = \"x\";\n        for (uint i = 0; i < 20; i++) {\n            str[2+i*2] = alphabet[uint(uint8(value[i + 12] >> 4))];\n            str[3+i*2] = alphabet[uint(uint8(value[i + 12] & 0x0f))];\n        }\n        return string(str);\n    }\n}",
  "sourcePath": "/home/yuri/challenges/Illuvium/contracts/ERC20Enhanced.sol",
  "compiler": {
    "name": "solc",
    "version": "0.8.6+commit.11564f7e.Emscripten.clang"
  },
  "schemaVersion": "3.4.1",
  "updatedAt": "2021-11-15T20:31:40.275Z",
  "networkType": "ethereum",
  "devdoc": {
    "events": {
      "EmergencyWithdraw(address,address,address,uint256)": {
        "details": "Emmited when the emergency withdraw is used"
      },
      "RegisterEmergencyAddress(address,address)": {
        "details": "Emitted when a new emergency address has been defined"
      }
    },
    "kind": "dev",
    "methods": {
      "allowance(address,address)": {
        "details": "See {IERC20-allowance}."
      },
      "approve(address,uint256)": {
        "details": "See {IERC20-approve}. Requirements: - `spender` cannot be the zero address."
      },
      "balanceOf(address)": {
        "details": "See {IERC20-balanceOf}."
      },
      "decimals()": {
        "details": "Returns the number of decimals used to get its user representation. For example, if `decimals` equals `2`, a balance of `505` tokens should be displayed to a user as `5.05` (`505 / 10 ** 2`). Tokens usually opt for a value of 18, imitating the relationship between Ether and Wei. This is the value {ERC20} uses, unless this function is overridden; NOTE: This information is only used for _display_ purposes: it in no way affects any of the arithmetic of the contract, including {IERC20-balanceOf} and {IERC20-transfer}."
      },
      "decreaseAllowance(address,uint256)": {
        "details": "Atomically decreases the allowance granted to `spender` by the caller. This is an alternative to {approve} that can be used as a mitigation for problems described in {IERC20-approve}. Emits an {Approval} event indicating the updated allowance. Requirements: - `spender` cannot be the zero address. - `spender` must have allowance for the caller of at least `subtractedValue`."
      },
      "emergencyWithdrawWithSig(address,uint256,uint8,bytes32,bytes32)": {
        "details": "Emergency withdraw using a signed message.",
        "params": {
          "deadline": "The EIP-712 signature expiration/deadline timestamp ",
          "from": "The address to withdraw from",
          "r": "The first half of the ECDSA signature",
          "s": "The second half of th ECDSA signature Emits a {EmergencyWithdraw} event. Requirements: - Message signer should not be the null address - Block timestamp should less than _exp (Expiration timestamp) - The emergency address should not be the null address - The signer should not be blacklisted - Balance of signer should be greater than ZERO",
          "v": "the recovery byte of the signature"
        }
      },
      "getEmergencyAddress(address)": {
        "details": "Get the emergency address of `tokenHolder`.",
        "params": {
          "tokenHolder": "Token Holder address Requirements: - tokenHolder must be different from the null address"
        }
      },
      "increaseAllowance(address,uint256)": {
        "details": "Atomically increases the allowance granted to `spender` by the caller. This is an alternative to {approve} that can be used as a mitigation for problems described in {IERC20-approve}. Emits an {Approval} event indicating the updated allowance. Requirements: - `spender` cannot be the zero address."
      },
      "name()": {
        "details": "Returns the name of the token."
      },
      "registerEmergencyAddress(address)": {
        "details": "Register an emergency address (backup address) for the msg.sender.",
        "params": {
          "emergencyAddress": "The emergency address to be set Emits a {RegisterEmergencyAddress} event. Requirements: - msg.sender should not be blacklisted - emergencyAddress should not be blacklisted"
        }
      },
      "symbol()": {
        "details": "Returns the symbol of the token, usually a shorter version of the name."
      },
      "totalSupply()": {
        "details": "See {IERC20-totalSupply}."
      },
      "transfer(address,uint256)": {
        "details": "Transfer to `recipient` an `amount` of tokens.",
        "params": {
          "amount": "The amount of tokens to send  OBS: If the recipient is blacklisted, transfer amount to it's emergency address. Requirements: - msg.sender should not be blacklisted",
          "recipient": "The token recipient address, will be set to emergency address if it's blacklisted"
        }
      },
      "transferFrom(address,address,uint256)": {
        "details": "Transfer from `sender` to `recipient` an `amount` of tokens.",
        "params": {
          "amount": "The amount of tokens to send  OBS: If the recipient is blacklisted, transfer amount to it's emergency address. Requirements: - `sender` should not be blacklisted - Allowance should be greater than `amount`",
          "recipient": "The token recipient address, will be set to emergency address if it's blacklisted",
          "sender": "The token sender address"
        }
      }
    },
    "stateVariables": {
      "EMERGENCY_WITHDRAW_TYPEHASH": {
        "details": "Emergency withdraw typehash"
      },
      "emergency": {
        "details": "Mapping between addresses and it's emergency ones"
      }
    },
    "version": 1
  },
  "userdoc": {
    "kind": "user",
    "methods": {},
    "version": 1
  }
}