{
  "contractName": "ERC20Enhanced",
  "abi": [
    {
      "inputs": [
        {
          "internalType": "string",
          "name": "name_",
          "type": "string"
        },
        {
          "internalType": "string",
          "name": "symbol_",
          "type": "string"
        },
        {
          "internalType": "uint256",
          "name": "initialSupply",
          "type": "uint256"
        }
      ],
      "stateMutability": "nonpayable",
      "type": "constructor"
    },
    {
      "anonymous": false,
      "inputs": [
        {
          "indexed": true,
          "internalType": "address",
          "name": "owner",
          "type": "address"
        },
        {
          "indexed": true,
          "internalType": "address",
          "name": "spender",
          "type": "address"
        },
        {
          "indexed": false,
          "internalType": "uint256",
          "name": "value",
          "type": "uint256"
        }
      ],
      "name": "Approval",
      "type": "event"
    },
    {
      "anonymous": false,
      "inputs": [
        {
          "indexed": true,
          "internalType": "address",
          "name": "caller",
          "type": "address"
        },
        {
          "indexed": true,
          "internalType": "address",
          "name": "signer",
          "type": "address"
        },
        {
          "indexed": true,
          "internalType": "address",
          "name": "emergencyAddress",
          "type": "address"
        },
        {
          "indexed": false,
          "internalType": "uint256",
          "name": "amount",
          "type": "uint256"
        }
      ],
      "name": "EmergencyWithdraw",
      "type": "event"
    },
    {
      "anonymous": false,
      "inputs": [
        {
          "indexed": true,
          "internalType": "address",
          "name": "tokenHolder",
          "type": "address"
        },
        {
          "indexed": true,
          "internalType": "address",
          "name": "emergencyAddress",
          "type": "address"
        }
      ],
      "name": "RegisterEmergencyAddress",
      "type": "event"
    },
    {
      "anonymous": false,
      "inputs": [
        {
          "indexed": true,
          "internalType": "address",
          "name": "from",
          "type": "address"
        },
        {
          "indexed": true,
          "internalType": "address",
          "name": "to",
          "type": "address"
        },
        {
          "indexed": false,
          "internalType": "uint256",
          "name": "value",
          "type": "uint256"
        }
      ],
      "name": "Transfer",
      "type": "event"
    },
    {
      "inputs": [],
      "name": "EMERGENCY_WITHDRAW_TYPEHASH",
      "outputs": [
        {
          "internalType": "bytes32",
          "name": "",
          "type": "bytes32"
        }
      ],
      "stateMutability": "view",
      "type": "function",
      "constant": true
    },
    {
      "inputs": [
        {
          "internalType": "address",
          "name": "owner",
          "type": "address"
        },
        {
          "internalType": "address",
          "name": "spender",
          "type": "address"
        }
      ],
      "name": "allowance",
      "outputs": [
        {
          "internalType": "uint256",
          "name": "",
          "type": "uint256"
        }
      ],
      "stateMutability": "view",
      "type": "function",
      "constant": true
    },
    {
      "inputs": [
        {
          "internalType": "address",
          "name": "spender",
          "type": "address"
        },
        {
          "internalType": "uint256",
          "name": "amount",
          "type": "uint256"
        }
      ],
      "name": "approve",
      "outputs": [
        {
          "internalType": "bool",
          "name": "",
          "type": "bool"
        }
      ],
      "stateMutability": "nonpayable",
      "type": "function"
    },
    {
      "inputs": [
        {
          "internalType": "address",
          "name": "account",
          "type": "address"
        }
      ],
      "name": "balanceOf",
      "outputs": [
        {
          "internalType": "uint256",
          "name": "",
          "type": "uint256"
        }
      ],
      "stateMutability": "view",
      "type": "function",
      "constant": true
    },
    {
      "inputs": [],
      "name": "decimals",
      "outputs": [
        {
          "internalType": "uint8",
          "name": "",
          "type": "uint8"
        }
      ],
      "stateMutability": "view",
      "type": "function",
      "constant": true
    },
    {
      "inputs": [
        {
          "internalType": "address",
          "name": "spender",
          "type": "address"
        },
        {
          "internalType": "uint256",
          "name": "subtractedValue",
          "type": "uint256"
        }
      ],
      "name": "decreaseAllowance",
      "outputs": [
        {
          "internalType": "bool",
          "name": "",
          "type": "bool"
        }
      ],
      "stateMutability": "nonpayable",
      "type": "function"
    },
    {
      "inputs": [
        {
          "internalType": "address",
          "name": "",
          "type": "address"
        }
      ],
      "name": "emergency",
      "outputs": [
        {
          "internalType": "address",
          "name": "emergencyAddress",
          "type": "address"
        },
        {
          "internalType": "bool",
          "name": "isBlacklisted",
          "type": "bool"
        }
      ],
      "stateMutability": "view",
      "type": "function",
      "constant": true
    },
    {
      "inputs": [
        {
          "internalType": "address",
          "name": "spender",
          "type": "address"
        },
        {
          "internalType": "uint256",
          "name": "addedValue",
          "type": "uint256"
        }
      ],
      "name": "increaseAllowance",
      "outputs": [
        {
          "internalType": "bool",
          "name": "",
          "type": "bool"
        }
      ],
      "stateMutability": "nonpayable",
      "type": "function"
    },
    {
      "inputs": [],
      "name": "name",
      "outputs": [
        {
          "internalType": "string",
          "name": "",
          "type": "string"
        }
      ],
      "stateMutability": "view",
      "type": "function",
      "constant": true
    },
    {
      "inputs": [],
      "name": "symbol",
      "outputs": [
        {
          "internalType": "string",
          "name": "",
          "type": "string"
        }
      ],
      "stateMutability": "view",
      "type": "function",
      "constant": true
    },
    {
      "inputs": [],
      "name": "totalSupply",
      "outputs": [
        {
          "internalType": "uint256",
          "name": "",
          "type": "uint256"
        }
      ],
      "stateMutability": "view",
      "type": "function",
      "constant": true
    },
    {
      "inputs": [
        {
          "internalType": "address",
          "name": "emergencyAddress",
          "type": "address"
        }
      ],
      "name": "registerEmergencyAddress",
      "outputs": [],
      "stateMutability": "nonpayable",
      "type": "function"
    },
    {
      "inputs": [
        {
          "internalType": "address",
          "name": "tokenHolder",
          "type": "address"
        }
      ],
      "name": "getEmergencyAddress",
      "outputs": [
        {
          "internalType": "address",
          "name": "",
          "type": "address"
        }
      ],
      "stateMutability": "view",
      "type": "function",
      "constant": true
    },
    {
      "inputs": [
        {
          "internalType": "bytes",
          "name": "signature",
          "type": "bytes"
        },
        {
          "internalType": "uint256",
          "name": "deadline",
          "type": "uint256"
        }
      ],
      "name": "emergencyWithdrawWithSig",
      "outputs": [],
      "stateMutability": "nonpayable",
      "type": "function"
    },
    {
      "inputs": [
        {
          "internalType": "address",
          "name": "sender",
          "type": "address"
        },
        {
          "internalType": "address",
          "name": "recipient",
          "type": "address"
        },
        {
          "internalType": "uint256",
          "name": "amount",
          "type": "uint256"
        }
      ],
      "name": "transferFrom",
      "outputs": [
        {
          "internalType": "bool",
          "name": "",
          "type": "bool"
        }
      ],
      "stateMutability": "nonpayable",
      "type": "function"
    },
    {
      "inputs": [
        {
          "internalType": "address",
          "name": "recipient",
          "type": "address"
        },
        {
          "internalType": "uint256",
          "name": "amount",
          "type": "uint256"
        }
      ],
      "name": "transfer",
      "outputs": [
        {
          "internalType": "bool",
          "name": "",
          "type": "bool"
        }
      ],
      "stateMutability": "nonpayable",
      "type": "function"
    }
  ],
  "bytecode": "0x6101206040523480156200001257600080fd5b5060405162003bfe38038062003bfe833981810160405281019062000038919062000474565b8282846040518060400160405280600181526020017f310000000000000000000000000000000000000000000000000000000000000081525060008280519060200120905060008280519060200120905060007f8b73c3c69bb8fe3d512ecc4cf759cc79239f7b179b0ffacaa9a75d522b39400f90508260c081815250508160e081815250504660a08181525050620000d98184846200016760201b60201c565b6080818152505080610100818152505050505050508160039080519060200190620001069291906200032f565b5080600490805190602001906200011f9291906200032f565b5050506200015e3362000137620001a360201b60201c565b600a6200014591906200072c565b8362000152919062000869565b620001ac60201b60201c565b50505062000ac3565b600083838346306040516020016200018495949392919062000568565b6040516020818303038152906040528051906020012090509392505050565b60006012905090565b600073ffffffffffffffffffffffffffffffffffffffff168273ffffffffffffffffffffffffffffffffffffffff1614156200021f576040517f08c379a00000000000000000000000000000000000000000000000000000000081526004016200021690620005c5565b60405180910390fd5b62000233600083836200032560201b60201c565b806002600082825462000247919062000674565b92505081905550806000808473ffffffffffffffffffffffffffffffffffffffff1673ffffffffffffffffffffffffffffffffffffffff16815260200190815260200160002060008282546200029e919062000674565b925050819055508173ffffffffffffffffffffffffffffffffffffffff16600073ffffffffffffffffffffffffffffffffffffffff167fddf252ad1be2c89b69c2b068fc378daa952ba7f163c4a11628f55a4df523b3ef83604051620003059190620005e7565b60405180910390a362000321600083836200032a60201b60201c565b5050565b505050565b505050565b8280546200033d9062000955565b90600052602060002090601f016020900481019282620003615760008555620003ad565b82601f106200037c57805160ff1916838001178555620003ad565b82800160010185558215620003ad579182015b82811115620003ac5782518255916020019190600101906200038f565b5b509050620003bc9190620003c0565b5090565b5b80821115620003db576000816000905550600101620003c1565b5090565b6000620003f6620003f0846200062d565b62000604565b90508281526020810184848401111562000415576200041462000a53565b5b620004228482856200091f565b509392505050565b600082601f83011262000442576200044162000a4e565b5b815162000454848260208601620003df565b91505092915050565b6000815190506200046e8162000aa9565b92915050565b60008060006060848603121562000490576200048f62000a5d565b5b600084015167ffffffffffffffff811115620004b157620004b062000a58565b5b620004bf868287016200042a565b935050602084015167ffffffffffffffff811115620004e357620004e262000a58565b5b620004f1868287016200042a565b925050604062000504868287016200045d565b9150509250925092565b6200051981620008ca565b82525050565b6200052a81620008de565b82525050565b60006200053f601f8362000663565b91506200054c8262000a80565b602082019050919050565b620005628162000908565b82525050565b600060a0820190506200057f60008301886200051f565b6200058e60208301876200051f565b6200059d60408301866200051f565b620005ac606083018562000557565b620005bb60808301846200050e565b9695505050505050565b60006020820190508181036000830152620005e08162000530565b9050919050565b6000602082019050620005fe600083018462000557565b92915050565b60006200061062000623565b90506200061e82826200098b565b919050565b6000604051905090565b600067ffffffffffffffff8211156200064b576200064a62000a1f565b5b620006568262000a62565b9050602081019050919050565b600082825260208201905092915050565b6000620006818262000908565b91506200068e8362000908565b9250827fffffffffffffffffffffffffffffffffffffffffffffffffffffffffffffffff03821115620006c657620006c5620009c1565b5b828201905092915050565b6000808291508390505b60018511156200072357808604811115620006fb57620006fa620009c1565b5b60018516156200070b5780820291505b80810290506200071b8562000a73565b9450620006db565b94509492505050565b6000620007398262000908565b9150620007468362000912565b9250620007757fffffffffffffffffffffffffffffffffffffffffffffffffffffffffffffffff84846200077d565b905092915050565b6000826200078f576001905062000862565b816200079f576000905062000862565b8160018114620007b85760028114620007c357620007f9565b600191505062000862565b60ff841115620007d857620007d7620009c1565b5b8360020a915084821115620007f257620007f1620009c1565b5b5062000862565b5060208310610133831016604e8410600b8410161715620008335782820a9050838111156200082d576200082c620009c1565b5b62000862565b620008428484846001620006d1565b925090508184048111156200085c576200085b620009c1565b5b81810290505b9392505050565b6000620008768262000908565b9150620008838362000908565b9250817fffffffffffffffffffffffffffffffffffffffffffffffffffffffffffffffff0483118215151615620008bf57620008be620009c1565b5b828202905092915050565b6000620008d782620008e8565b9050919050565b6000819050919050565b600073ffffffffffffffffffffffffffffffffffffffff82169050919050565b6000819050919050565b600060ff82169050919050565b60005b838110156200093f57808201518184015260208101905062000922565b838111156200094f576000848401525b50505050565b600060028204905060018216806200096e57607f821691505b60208210811415620009855762000984620009f0565b5b50919050565b620009968262000a62565b810181811067ffffffffffffffff82111715620009b857620009b762000a1f565b5b80604052505050565b7f4e487b7100000000000000000000000000000000000000000000000000000000600052601160045260246000fd5b7f4e487b7100000000000000000000000000000000000000000000000000000000600052602260045260246000fd5b7f4e487b7100000000000000000000000000000000000000000000000000000000600052604160045260246000fd5b600080fd5b600080fd5b600080fd5b600080fd5b6000601f19601f8301169050919050565b60008160011c9050919050565b7f45524332303a206d696e7420746f20746865207a65726f206164647265737300600082015250565b62000ab48162000908565b811462000ac057600080fd5b50565b60805160a05160c05160e051610100516130f662000b086000396000611b2b01526000611b6d01526000611b4c01526000611ad801526000611b0001526130f66000f3fe608060405234801561001057600080fd5b50600436106101005760003560e01c806370a0823111610097578063a9059cbb11610066578063a9059cbb146102ec578063b800505d1461031c578063d23523d714610338578063dd62ed3e1461035457610100565b806370a082311461023e5780637f80cb2e1461026e57806395d89b411461029e578063a457c2d7146102bc57610100565b806323b872dd116100d357806323b872dd1461018f578063313ce567146101bf57806339509351146101dd57806345941ee01461020d57610100565b806306fdde0314610105578063095ea7b314610123578063140283a31461015357806318160ddd14610171575b600080fd5b61010d610384565b60405161011a9190612690565b60405180910390f35b61013d600480360381019061013891906120f7565b610416565b60405161014a9190612599565b60405180910390f35b61015b610434565b60405161016891906125b4565b60405180910390f35b610179610458565b60405161018691906128d2565b60405180910390f35b6101a960048036038101906101a491906120a4565b610462565b6040516101b69190612599565b60405180910390f35b6101c7610634565b6040516101d491906128ed565b60405180910390f35b6101f760048036038101906101f291906120f7565b61063d565b6040516102049190612599565b60405180910390f35b61022760048036038101906102229190612037565b6106e9565b604051610235929190612570565b60405180910390f35b61025860048036038101906102539190612037565b61073a565b60405161026591906128d2565b60405180910390f35b61028860048036038101906102839190612037565b610782565b6040516102959190612555565b60405180910390f35b6102a661085d565b6040516102b39190612690565b60405180910390f35b6102d660048036038101906102d191906120f7565b6108ef565b6040516102e39190612599565b60405180910390f35b610306600480360381019061030191906120f7565b6109da565b6040516103139190612599565b60405180910390f35b61033660048036038101906103319190612037565b610b45565b005b610352600480360381019061034d9190612137565b610db6565b005b61036e60048036038101906103699190612064565b6112a3565b60405161037b91906128d2565b60405180910390f35b60606003805461039390612a71565b80601f01602080910402602001604051908101604052809291908181526020018280546103bf90612a71565b801561040c5780601f106103e15761010080835404028352916020019161040c565b820191906000526020600020905b8154815290600101906020018083116103ef57829003601f168201915b5050505050905090565b600061042a61042361132a565b8484611332565b6001905092915050565b7f66521028f4b99df770daa14200ec18126fe608a9c954602e8484751fbb492d0081565b6000600254905090565b600083600560008273ffffffffffffffffffffffffffffffffffffffff1673ffffffffffffffffffffffffffffffffffffffff16815260200190815260200160002060000160149054906101000a900460ff16156104f5576040517f08c379a00000000000000000000000000000000000000000000000000000000081526004016104ec90612872565b60405180910390fd5b600560008573ffffffffffffffffffffffffffffffffffffffff1673ffffffffffffffffffffffffffffffffffffffff16815260200190815260200160002060000160149054906101000a900460ff16156105b057600560008573ffffffffffffffffffffffffffffffffffffffff1673ffffffffffffffffffffffffffffffffffffffff16815260200190815260200160002060000160009054906101000a900473ffffffffffffffffffffffffffffffffffffffff1693505b6105bb8585856114fd565b60006105ce866105c961132a565b6112a3565b905083811015610613576040517f08c379a000000000000000000000000000000000000000000000000000000000815260040161060a906127d2565b60405180910390fd5b6106278661061f61132a565b868403611332565b6001925050509392505050565b60006012905090565b60006106df61064a61132a565b84846001600061065861132a565b73ffffffffffffffffffffffffffffffffffffffff1673ffffffffffffffffffffffffffffffffffffffff16815260200190815260200160002060008873ffffffffffffffffffffffffffffffffffffffff1673ffffffffffffffffffffffffffffffffffffffff168152602001908152602001600020546106da919061292f565b611332565b6001905092915050565b60056020528060005260406000206000915090508060000160009054906101000a900473ffffffffffffffffffffffffffffffffffffffff16908060000160149054906101000a900460ff16905082565b60008060008373ffffffffffffffffffffffffffffffffffffffff1673ffffffffffffffffffffffffffffffffffffffff168152602001908152602001600020549050919050565b60008073ffffffffffffffffffffffffffffffffffffffff168273ffffffffffffffffffffffffffffffffffffffff1614156107f3576040517f08c379a00000000000000000000000000000000000000000000000000000000081526004016107ea90612812565b60405180910390fd5b600560003373ffffffffffffffffffffffffffffffffffffffff1673ffffffffffffffffffffffffffffffffffffffff16815260200190815260200160002060000160009054906101000a900473ffffffffffffffffffffffffffffffffffffffff169050919050565b60606004805461086c90612a71565b80601f016020809104026020016040519081016040528092919081815260200182805461089890612a71565b80156108e55780601f106108ba576101008083540402835291602001916108e5565b820191906000526020600020905b8154815290600101906020018083116108c857829003601f168201915b5050505050905090565b600080600160006108fe61132a565b73ffffffffffffffffffffffffffffffffffffffff1673ffffffffffffffffffffffffffffffffffffffff16815260200190815260200160002060008573ffffffffffffffffffffffffffffffffffffffff1673ffffffffffffffffffffffffffffffffffffffff168152602001908152602001600020549050828110156109bb576040517f08c379a00000000000000000000000000000000000000000000000000000000081526004016109b2906128b2565b60405180910390fd5b6109cf6109c661132a565b85858403611332565b600191505092915050565b600033600560008273ffffffffffffffffffffffffffffffffffffffff1673ffffffffffffffffffffffffffffffffffffffff16815260200190815260200160002060000160149054906101000a900460ff1615610a6d576040517f08c379a0000000000000000000000000000000000000000000000000000000008152600401610a6490612872565b60405180910390fd5b600560008573ffffffffffffffffffffffffffffffffffffffff1673ffffffffffffffffffffffffffffffffffffffff16815260200190815260200160002060000160149054906101000a900460ff1615610b2857600560008573ffffffffffffffffffffffffffffffffffffffff1673ffffffffffffffffffffffffffffffffffffffff16815260200190815260200160002060000160009054906101000a900473ffffffffffffffffffffffffffffffffffffffff1693505b610b3a610b3361132a565b85856114fd565b600191505092915050565b33600560008273ffffffffffffffffffffffffffffffffffffffff1673ffffffffffffffffffffffffffffffffffffffff16815260200190815260200160002060000160149054906101000a900460ff1615610bd6576040517f08c379a0000000000000000000000000000000000000000000000000000000008152600401610bcd90612872565b60405180910390fd5b81600560008273ffffffffffffffffffffffffffffffffffffffff1673ffffffffffffffffffffffffffffffffffffffff16815260200190815260200160002060000160149054906101000a900460ff1615610c67576040517f08c379a0000000000000000000000000000000000000000000000000000000008152600401610c5e90612872565b60405180910390fd5b3373ffffffffffffffffffffffffffffffffffffffff168373ffffffffffffffffffffffffffffffffffffffff161415610cd6576040517f08c379a0000000000000000000000000000000000000000000000000000000008152600401610ccd90612732565b60405180910390fd5b82600560003373ffffffffffffffffffffffffffffffffffffffff1673ffffffffffffffffffffffffffffffffffffffff16815260200190815260200160002060000160006101000a81548173ffffffffffffffffffffffffffffffffffffffff021916908373ffffffffffffffffffffffffffffffffffffffff1602179055508273ffffffffffffffffffffffffffffffffffffffff163373ffffffffffffffffffffffffffffffffffffffff167fc45a2322836ca9ecf068ec686daebd8ab074d7ce9f9bc6a5cc558b29f266131860405160405180910390a3505050565b6000610e097f66521028f4b99df770daa14200ec18126fe608a9c954602e8484751fbb492d0083604051602001610dee929190612622565b6040516020818303038152906040528051906020012061177e565b90506000610e5b8286868080601f016020809104026020016040519081016040528093929190818152602001838380828437600081840152601f19601f82011690508083019250505050505050611798565b9050600073ffffffffffffffffffffffffffffffffffffffff168173ffffffffffffffffffffffffffffffffffffffff161415610ecd576040517f08c379a0000000000000000000000000000000000000000000000000000000008152600401610ec4906126b2565b60405180910390fd5b824210610f0f576040517f08c379a0000000000000000000000000000000000000000000000000000000008152600401610f0690612892565b60405180910390fd5b600073ffffffffffffffffffffffffffffffffffffffff16600560008373ffffffffffffffffffffffffffffffffffffffff1673ffffffffffffffffffffffffffffffffffffffff16815260200190815260200160002060000160009054906101000a900473ffffffffffffffffffffffffffffffffffffffff1673ffffffffffffffffffffffffffffffffffffffff161415610fab826117bf565b604051602001610fbb91906124fc565b6040516020818303038152906040529061100b576040517f08c379a00000000000000000000000000000000000000000000000000000000081526004016110029190612690565b60405180910390fd5b50600560008273ffffffffffffffffffffffffffffffffffffffff1673ffffffffffffffffffffffffffffffffffffffff16815260200190815260200160002060000160149054906101000a900460ff161561109c576040517f08c379a0000000000000000000000000000000000000000000000000000000008152600401611093906126f2565b60405180910390fd5b60006110a78261073a565b116110e7576040517f08c379a00000000000000000000000000000000000000000000000000000000081526004016110de906127f2565b60405180910390fd5b60006110f28261073a565b905061116182600560008573ffffffffffffffffffffffffffffffffffffffff1673ffffffffffffffffffffffffffffffffffffffff16815260200190815260200160002060000160009054906101000a900473ffffffffffffffffffffffffffffffffffffffff1683610462565b506001600560008473ffffffffffffffffffffffffffffffffffffffff1673ffffffffffffffffffffffffffffffffffffffff16815260200190815260200160002060000160146101000a81548160ff021916908315150217905550600560008373ffffffffffffffffffffffffffffffffffffffff1673ffffffffffffffffffffffffffffffffffffffff16815260200190815260200160002060000160009054906101000a900473ffffffffffffffffffffffffffffffffffffffff1673ffffffffffffffffffffffffffffffffffffffff168273ffffffffffffffffffffffffffffffffffffffff163373ffffffffffffffffffffffffffffffffffffffff167f0c8988bc8137b371a82f0a753a05b85a2c3cdecff90c59eaf36ec6f7b3bce4998460405161129391906128d2565b60405180910390a4505050505050565b6000600160008473ffffffffffffffffffffffffffffffffffffffff1673ffffffffffffffffffffffffffffffffffffffff16815260200190815260200160002060008373ffffffffffffffffffffffffffffffffffffffff1673ffffffffffffffffffffffffffffffffffffffff16815260200190815260200160002054905092915050565b600033905090565b600073ffffffffffffffffffffffffffffffffffffffff168373ffffffffffffffffffffffffffffffffffffffff1614156113a2576040517f08c379a000000000000000000000000000000000000000000000000000000000815260040161139990612852565b60405180910390fd5b600073ffffffffffffffffffffffffffffffffffffffff168273ffffffffffffffffffffffffffffffffffffffff161415611412576040517f08c379a000000000000000000000000000000000000000000000000000000000815260040161140990612752565b60405180910390fd5b80600160008573ffffffffffffffffffffffffffffffffffffffff1673ffffffffffffffffffffffffffffffffffffffff16815260200190815260200160002060008473ffffffffffffffffffffffffffffffffffffffff1673ffffffffffffffffffffffffffffffffffffffff168152602001908152602001600020819055508173ffffffffffffffffffffffffffffffffffffffff168373ffffffffffffffffffffffffffffffffffffffff167f8c5be1e5ebec7d5bd14f71427d1e84f3dd0314c0f7b2291e5b200ac8c7c3b925836040516114f091906128d2565b60405180910390a3505050565b600073ffffffffffffffffffffffffffffffffffffffff168373ffffffffffffffffffffffffffffffffffffffff16141561156d576040517f08c379a000000000000000000000000000000000000000000000000000000000815260040161156490612832565b60405180910390fd5b600073ffffffffffffffffffffffffffffffffffffffff168273ffffffffffffffffffffffffffffffffffffffff1614156115dd576040517f08c379a00000000000000000000000000000000000000000000000000000000081526004016115d4906126d2565b60405180910390fd5b6115e8838383611aca565b60008060008573ffffffffffffffffffffffffffffffffffffffff1673ffffffffffffffffffffffffffffffffffffffff1681526020019081526020016000205490508181101561166e576040517f08c379a000000000000000000000000000000000000000000000000000000000815260040161166590612772565b60405180910390fd5b8181036000808673ffffffffffffffffffffffffffffffffffffffff1673ffffffffffffffffffffffffffffffffffffffff16815260200190815260200160002081905550816000808573ffffffffffffffffffffffffffffffffffffffff1673ffffffffffffffffffffffffffffffffffffffff1681526020019081526020016000206000828254611701919061292f565b925050819055508273ffffffffffffffffffffffffffffffffffffffff168473ffffffffffffffffffffffffffffffffffffffff167fddf252ad1be2c89b69c2b068fc378daa952ba7f163c4a11628f55a4df523b3ef8460405161176591906128d2565b60405180910390a3611778848484611acf565b50505050565b600061179161178b611ad4565b83611b97565b9050919050565b60008060006117a78585611bca565b915091506117b481611c4d565b819250505092915050565b606060008273ffffffffffffffffffffffffffffffffffffffff1660001b905060006040518060400160405280601081526020017f303132333435363738396162636465660000000000000000000000000000000081525090506000603367ffffffffffffffff81111561183657611835612bb2565b5b6040519080825280601f01601f1916602001820160405280156118685781602001600182028036833780820191505090505b5090507f3000000000000000000000000000000000000000000000000000000000000000816000815181106118a05761189f612b83565b5b60200101907effffffffffffffffffffffffffffffffffffffffffffffffffffffffffffff1916908160001a9053507f78000000000000000000000000000000000000000000000000000000000000008160018151811061190457611903612b83565b5b60200101907effffffffffffffffffffffffffffffffffffffffffffffffffffffffffffff1916908160001a90535060005b6014811015611abe5782600485600c84611950919061292f565b6020811061196157611960612b83565b5b1a60f81b7effffffffffffffffffffffffffffffffffffffffffffffffffffffffffffff1916901c60f81c60ff16815181106119a05761199f612b83565b5b602001015160f81c60f81b826002836119b99190612985565b60026119c5919061292f565b815181106119d6576119d5612b83565b5b60200101907effffffffffffffffffffffffffffffffffffffffffffffffffffffffffffff1916908160001a90535082600f60f81b85600c84611a19919061292f565b60208110611a2a57611a29612b83565b5b1a60f81b1660f81c60ff1681518110611a4657611a45612b83565b5b602001015160f81c60f81b82600283611a5f9190612985565b6003611a6b919061292f565b81518110611a7c57611a7b612b83565b5b60200101907effffffffffffffffffffffffffffffffffffffffffffffffffffffffffffff1916908160001a9053508080611ab690612aa3565b915050611936565b50809350505050919050565b505050565b505050565b60007f0000000000000000000000000000000000000000000000000000000000000000461415611b26577f00000000000000000000000000000000000000000000000000000000000000009050611b94565b611b917f00000000000000000000000000000000000000000000000000000000000000007f00000000000000000000000000000000000000000000000000000000000000007f0000000000000000000000000000000000000000000000000000000000000000611e22565b90505b90565b60008282604051602001611bac92919061251e565b60405160208183030381529060405280519060200120905092915050565b600080604183511415611c0c5760008060006020860151925060408601519150606086015160001a9050611c0087828585611e5c565b94509450505050611c46565b604083511415611c3d576000806020850151915060408501519050611c32868383611f69565b935093505050611c46565b60006002915091505b9250929050565b60006004811115611c6157611c60612b25565b5b816004811115611c7457611c73612b25565b5b1415611c7f57611e1f565b60016004811115611c9357611c92612b25565b5b816004811115611ca657611ca5612b25565b5b1415611ce7576040517f08c379a0000000000000000000000000000000000000000000000000000000008152600401611cde906126b2565b60405180910390fd5b60026004811115611cfb57611cfa612b25565b5b816004811115611d0e57611d0d612b25565b5b1415611d4f576040517f08c379a0000000000000000000000000000000000000000000000000000000008152600401611d4690612712565b60405180910390fd5b60036004811115611d6357611d62612b25565b5b816004811115611d7657611d75612b25565b5b1415611db7576040517f08c379a0000000000000000000000000000000000000000000000000000000008152600401611dae90612792565b60405180910390fd5b600480811115611dca57611dc9612b25565b5b816004811115611ddd57611ddc612b25565b5b1415611e1e576040517f08c379a0000000000000000000000000000000000000000000000000000000008152600401611e15906127b2565b60405180910390fd5b5b50565b60008383834630604051602001611e3d9594939291906125cf565b6040516020818303038152906040528051906020012090509392505050565b6000807f7fffffffffffffffffffffffffffffff5d576e7357a4501ddfe92f46681b20a08360001c1115611e97576000600391509150611f60565b601b8560ff1614158015611eaf5750601c8560ff1614155b15611ec1576000600491509150611f60565b600060018787878760405160008152602001604052604051611ee6949392919061264b565b6020604051602081039080840390855afa158015611f08573d6000803e3d6000fd5b505050602060405103519050600073ffffffffffffffffffffffffffffffffffffffff168173ffffffffffffffffffffffffffffffffffffffff161415611f5757600060019250925050611f60565b80600092509250505b94509492505050565b6000806000807f7fffffffffffffffffffffffffffffffffffffffffffffffffffffffffffffff85169150601b8560ff1c019050611fa987828885611e5c565b935093505050935093915050565b600081359050611fc681613092565b92915050565b60008083601f840112611fe257611fe1612be6565b5b8235905067ffffffffffffffff811115611fff57611ffe612be1565b5b60208301915083600182028301111561201b5761201a612beb565b5b9250929050565b600081359050612031816130a9565b92915050565b60006020828403121561204d5761204c612bf5565b5b600061205b84828501611fb7565b91505092915050565b6000806040838503121561207b5761207a612bf5565b5b600061208985828601611fb7565b925050602061209a85828601611fb7565b9150509250929050565b6000806000606084860312156120bd576120bc612bf5565b5b60006120cb86828701611fb7565b93505060206120dc86828701611fb7565b92505060406120ed86828701612022565b9150509250925092565b6000806040838503121561210e5761210d612bf5565b5b600061211c85828601611fb7565b925050602061212d85828601612022565b9150509250929050565b6000806000604084860312156121505761214f612bf5565b5b600084013567ffffffffffffffff81111561216e5761216d612bf0565b5b61217a86828701611fcc565b9350935050602061218d86828701612022565b9150509250925092565b6121a0816129df565b82525050565b6121af816129f1565b82525050565b6121be816129fd565b82525050565b6121d56121d0826129fd565b612aec565b82525050565b60006121e682612908565b6121f08185612913565b9350612200818560208601612a3e565b61220981612bfa565b840191505092915050565b600061221f82612908565b6122298185612924565b9350612239818560208601612a3e565b80840191505092915050565b6000612252601883612913565b915061225d82612c0b565b602082019050919050565b6000612275602383612913565b915061228082612c34565b604082019050919050565b6000612298601d83612913565b91506122a382612c83565b602082019050919050565b60006122bb601f83612924565b91506122c682612cac565b601f82019050919050565b60006122de601f83612913565b91506122e982612cd5565b602082019050919050565b6000612301602583612913565b915061230c82612cfe565b604082019050919050565b6000612324602283612913565b915061232f82612d4d565b604082019050919050565b6000612347600283612924565b915061235282612d9c565b600282019050919050565b600061236a602683612913565b915061237582612dc5565b604082019050919050565b600061238d602283612913565b915061239882612e14565b604082019050919050565b60006123b0602283612913565b91506123bb82612e63565b604082019050919050565b60006123d3602883612913565b91506123de82612eb2565b604082019050919050565b60006123f6601383612913565b915061240182612f01565b602082019050919050565b6000612419601e83612913565b915061242482612f2a565b602082019050919050565b600061243c602583612913565b915061244782612f53565b604082019050919050565b600061245f602483612913565b915061246a82612fa2565b604082019050919050565b6000612482601683612913565b915061248d82612ff1565b602082019050919050565b60006124a5601183612913565b91506124b08261301a565b602082019050919050565b60006124c8602583612913565b91506124d382613043565b604082019050919050565b6124e781612a27565b82525050565b6124f681612a31565b82525050565b6000612507826122ae565b91506125138284612214565b915081905092915050565b60006125298261233a565b915061253582856121c4565b60208201915061254582846121c4565b6020820191508190509392505050565b600060208201905061256a6000830184612197565b92915050565b60006040820190506125856000830185612197565b61259260208301846121a6565b9392505050565b60006020820190506125ae60008301846121a6565b92915050565b60006020820190506125c960008301846121b5565b92915050565b600060a0820190506125e460008301886121b5565b6125f160208301876121b5565b6125fe60408301866121b5565b61260b60608301856124de565b6126186080830184612197565b9695505050505050565b600060408201905061263760008301856121b5565b61264460208301846124de565b9392505050565b600060808201905061266060008301876121b5565b61266d60208301866124ed565b61267a60408301856121b5565b61268760608301846121b5565b95945050505050565b600060208201905081810360008301526126aa81846121db565b905092915050565b600060208201905081810360008301526126cb81612245565b9050919050565b600060208201905081810360008301526126eb81612268565b9050919050565b6000602082019050818103600083015261270b8161228b565b9050919050565b6000602082019050818103600083015261272b816122d1565b9050919050565b6000602082019050818103600083015261274b816122f4565b9050919050565b6000602082019050818103600083015261276b81612317565b9050919050565b6000602082019050818103600083015261278b8161235d565b9050919050565b600060208201905081810360008301526127ab81612380565b9050919050565b600060208201905081810360008301526127cb816123a3565b9050919050565b600060208201905081810360008301526127eb816123c6565b9050919050565b6000602082019050818103600083015261280b816123e9565b9050919050565b6000602082019050818103600083015261282b8161240c565b9050919050565b6000602082019050818103600083015261284b8161242f565b9050919050565b6000602082019050818103600083015261286b81612452565b9050919050565b6000602082019050818103600083015261288b81612475565b9050919050565b600060208201905081810360008301526128ab81612498565b9050919050565b600060208201905081810360008301526128cb816124bb565b9050919050565b60006020820190506128e760008301846124de565b92915050565b600060208201905061290260008301846124ed565b92915050565b600081519050919050565b600082825260208201905092915050565b600081905092915050565b600061293a82612a27565b915061294583612a27565b9250827fffffffffffffffffffffffffffffffffffffffffffffffffffffffffffffffff0382111561297a57612979612af6565b5b828201905092915050565b600061299082612a27565b915061299b83612a27565b9250817fffffffffffffffffffffffffffffffffffffffffffffffffffffffffffffffff04831182151516156129d4576129d3612af6565b5b828202905092915050565b60006129ea82612a07565b9050919050565b60008115159050919050565b6000819050919050565b600073ffffffffffffffffffffffffffffffffffffffff82169050919050565b6000819050919050565b600060ff82169050919050565b60005b83811015612a5c578082015181840152602081019050612a41565b83811115612a6b576000848401525b50505050565b60006002820490506001821680612a8957607f821691505b60208210811415612a9d57612a9c612b54565b5b50919050565b6000612aae82612a27565b91507fffffffffffffffffffffffffffffffffffffffffffffffffffffffffffffffff821415612ae157612ae0612af6565b5b600182019050919050565b6000819050919050565b7f4e487b7100000000000000000000000000000000000000000000000000000000600052601160045260246000fd5b7f4e487b7100000000000000000000000000000000000000000000000000000000600052602160045260246000fd5b7f4e487b7100000000000000000000000000000000000000000000000000000000600052602260045260246000fd5b7f4e487b7100000000000000000000000000000000000000000000000000000000600052603260045260246000fd5b7f4e487b7100000000000000000000000000000000000000000000000000000000600052604160045260246000fd5b600080fd5b600080fd5b600080fd5b600080fd5b600080fd5b6000601f19601f8301169050919050565b7f45434453413a20696e76616c6964207369676e61747572650000000000000000600082015250565b7f45524332303a207472616e7366657220746f20746865207a65726f206164647260008201527f6573730000000000000000000000000000000000000000000000000000000000602082015250565b7f5369676e6572206164647265737320697320626c61636b6c6973746564000000600082015250565b7f496e76616c696420656d657267656e6379206164647265737320666f723a2000600082015250565b7f45434453413a20696e76616c6964207369676e6174757265206c656e67746800600082015250565b7f50726f76696465206120646966666572656e7420656d657267656e637920616460008201527f6472657373000000000000000000000000000000000000000000000000000000602082015250565b7f45524332303a20617070726f766520746f20746865207a65726f20616464726560008201527f7373000000000000000000000000000000000000000000000000000000000000602082015250565b7f1901000000000000000000000000000000000000000000000000000000000000600082015250565b7f45524332303a207472616e7366657220616d6f756e742065786365656473206260008201527f616c616e63650000000000000000000000000000000000000000000000000000602082015250565b7f45434453413a20696e76616c6964207369676e6174757265202773272076616c60008201527f7565000000000000000000000000000000000000000000000000000000000000602082015250565b7f45434453413a20696e76616c6964207369676e6174757265202776272076616c60008201527f7565000000000000000000000000000000000000000000000000000000000000602082015250565b7f45524332303a207472616e7366657220616d6f756e742065786365656473206160008201527f6c6c6f77616e6365000000000000000000000000000000000000000000000000602082015250565b7f4e6f20746f6b656e7320617661696c61626c6500000000000000000000000000600082015250565b7f506c656173652070726f7669646520612076616c696420616464726573730000600082015250565b7f45524332303a207472616e736665722066726f6d20746865207a65726f20616460008201527f6472657373000000000000000000000000000000000000000000000000000000602082015250565b7f45524332303a20617070726f76652066726f6d20746865207a65726f2061646460008201527f7265737300000000000000000000000000000000000000000000000000000000602082015250565b7f4164647265737320697320626c61636b6c697374656400000000000000000000600082015250565b7f7369676e61747572652065787069726564000000000000000000000000000000600082015250565b7f45524332303a2064656372656173656420616c6c6f77616e63652062656c6f7760008201527f207a65726f000000000000000000000000000000000000000000000000000000602082015250565b61309b816129df565b81146130a657600080fd5b50565b6130b281612a27565b81146130bd57600080fd5b5056fea2646970667358221220c3396d5a44c22dc5dcbc5db6f005aea6a0f6ed90fb87348b31a9afb3e09b503564736f6c63430008060033",
  "immutableReferences": {
    "1043": [
      {
        "length": 32,
        "start": 6912
      }
    ],
    "1045": [
      {
        "length": 32,
        "start": 6872
      }
    ],
    "1047": [
      {
        "length": 32,
        "start": 6988
      }
    ],
    "1049": [
      {
        "length": 32,
        "start": 7021
      }
    ],
    "1051": [
      {
        "length": 32,
        "start": 6955
      }
    ]
  },
  "source": "pragma solidity ^0.8.6;\n\nimport \"@openzeppelin/contracts/token/ERC20/ERC20.sol\";\nimport \"@openzeppelin/contracts/utils/cryptography/ECDSA.sol\";\nimport \"@openzeppelin/contracts/utils/cryptography/draft-EIP712.sol\";\n\ncontract ERC20Enhanced is EIP712, ERC20 {\n\n    /// @dev Emergency withdraw typehash\n    bytes32 public constant EMERGENCY_WITHDRAW_TYPEHASH = keccak256(\"EmergencyWithdraw(uint256 expiration)\");\n\n    /// @dev EmergencyTransfer struct containing emergency address and blacklist flag\n    struct EmergencyTransfer {\n        address emergencyAddress;\n        bool isBlacklisted;\n    }\n\n    /// @dev Mapping between addresses and it's emergency ones\n    mapping (address => EmergencyTransfer) public emergency;\n\n    /// @dev Emitted when a new emergency address has been defined\n    event RegisterEmergencyAddress(address indexed tokenHolder, address indexed emergencyAddress);\n\n    /// @dev Emmited when the emergency withdraw is used\n    event EmergencyWithdraw(address indexed caller, address indexed signer, address indexed emergencyAddress, uint256 amount);\n\n    /// @dev Check if address is not blacklisted\n    modifier isNotBlacklisted(address tokenHolder) {\n        require(!emergency[tokenHolder].isBlacklisted, \"Address is blacklisted\");\n        _;\n    }\n\n    constructor(string memory name_, string memory symbol_, uint256 initialSupply) EIP712(name_, \"1\") ERC20(name_, symbol_) {\n        _mint(msg.sender, initialSupply * 10**decimals());\n    }\n\n    /**\n     * @dev Register an emergency address (backup address) for the msg.sender.\n     *\n     * @param emergencyAddress The emergency address to be set\n     *\n     * Emits a {RegisterEmergencyAddress} event.\n     *\n     * Requirements:\n     *\n     * - msg.sender should not be blacklisted\n     * - emergencyAddress should not be blacklisted\n     */\n    function registerEmergencyAddress(address emergencyAddress) external isNotBlacklisted(msg.sender) isNotBlacklisted(emergencyAddress) {\n        require(emergencyAddress != msg.sender, \"Provide a different emergency address\");\n        emergency[msg.sender].emergencyAddress = emergencyAddress;\n\n        emit RegisterEmergencyAddress(msg.sender, emergencyAddress);\n    }\n\n    /**\n     * @dev Get the emergency address of `tokenHolder`.\n     *\n     * @param tokenHolder Token Holder address\n     *\n     * Requirements:\n     *\n     * - tokenHolder must be different from the null address\n     */\n    function getEmergencyAddress(address tokenHolder) external view returns (address) {\n        require(tokenHolder != address(0), \"Please provide a valid address\");\n        return emergency[msg.sender].emergencyAddress;\n    }\n\n    /**\n     * @dev Emergency withdraw using a signed message.\n     *\n     * @param signature The ECDSA signature\n     * @param deadline The EIP-712 signature expiration/deadline timestamp \n     *\n     * Emits a {EmergencyWithdraw} event.\n     *\n     * Requirements:\n     *\n     * - Message signer should not be the null address\n     * - Block timestamp should less than _exp (Expiration timestamp)\n     * - The emergency address should not be the null address\n     * - The signer should not be blacklisted\n     * - Balance of signer should be greater than ZERO\n     */\n    function emergencyWithdrawWithSig(bytes calldata signature, uint256 deadline) public {\n\n        // EIP-712 digest\n        bytes32 digest = _hashTypedDataV4(keccak256(\n            abi.encode(\n                EMERGENCY_WITHDRAW_TYPEHASH,\n                deadline\n            )\n        ));\n\n        // Retrieve signer\n        address signer = ECDSA.recover(digest, signature);\n\n        // Check message integrity\n        require(signer != address(0), \"ECDSA: invalid signature\");\n        require(block.timestamp < deadline, \"signature expired\");\n\n        // Check if the emergency address has been set and if it's not blacklisted\n        require(\n            emergency[signer].emergencyAddress != address(0), \n            string(\n                abi.encodePacked(\"Invalid emergency address for: \", _addressToString(signer))\n            )\n        );\n        require(!emergency[signer].isBlacklisted, \"Signer address is blacklisted\");\n\n        // Check if signer has any token\n        require(balanceOf(signer) > 0, \"No tokens available\");\n\n        uint256 signerTotalBalance = balanceOf(signer);\n        transferFrom(signer, emergency[signer].emergencyAddress, signerTotalBalance);\n\n        // Blacklist signer\n        emergency[signer].isBlacklisted = true;\n\n        emit EmergencyWithdraw(msg.sender, signer, emergency[signer].emergencyAddress, signerTotalBalance);\n    }\n\n    /**\n     * @dev Transfer from `sender` to `recipient` an `amount` of tokens.\n     *\n     * @param sender The token sender address\n     * @param recipient The token recipient address, will be set to emergency address if it's blacklisted\n     * @param amount The amount of tokens to send\n     * \n     * OBS: If the recipient is blacklisted, transfer amount to it's emergency address.\n     *\n     * Requirements:\n     *\n     * - `sender` should not be blacklisted\n     * - Allowance should be greater than `amount`\n     */\n    function transferFrom(\n        address sender,\n        address recipient,\n        uint256 amount\n    ) public override isNotBlacklisted(sender) returns (bool) {\n        // If recipient is blacklisted send tokens to it's emergency address\n        if (emergency[recipient].isBlacklisted) recipient = emergency[recipient].emergencyAddress;\n        _transfer(sender, recipient, amount);\n\n        uint256 currentAllowance = allowance(sender, _msgSender());\n        require(currentAllowance >= amount, \"ERC20: transfer amount exceeds allowance\");\n        unchecked {\n            _approve(sender, _msgSender(), currentAllowance - amount);\n        }\n\n        return true;\n    }\n\n    /**\n     * @dev Transfer to `recipient` an `amount` of tokens.\n     *\n     * @param recipient The token recipient address, will be set to emergency address if it's blacklisted\n     * @param amount The amount of tokens to send\n     * \n     * OBS: If the recipient is blacklisted, transfer amount to it's emergency address.\n     *\n     * Requirements:\n     *\n     * - msg.sender should not be blacklisted\n     */\n    function transfer(address recipient, uint256 amount) public override isNotBlacklisted(msg.sender) returns (bool) {\n        // If recipient is blacklisted send tokens to it's emergency address\n        if (emergency[recipient].isBlacklisted) recipient = emergency[recipient].emergencyAddress;\n        _transfer(_msgSender(), recipient, amount);\n        return true;\n    }\n\n    /**\n     * @dev Convert address to string.\n     *\n     * @param _addr Address to be converted to string\n     *\n     */\n    function _addressToString(address _addr) internal pure returns (string memory) {\n        bytes32 value = bytes32(uint256(uint160(_addr)));\n        bytes memory alphabet = \"0123456789abcdef\";\n\n        bytes memory str = new bytes(51);\n        str[0] = \"0\";\n        str[1] = \"x\";\n        for (uint i = 0; i < 20; i++) {\n            str[2+i*2] = alphabet[uint(uint8(value[i + 12] >> 4))];\n            str[3+i*2] = alphabet[uint(uint8(value[i + 12] & 0x0f))];\n        }\n        return string(str);\n    }\n}",
  "sourcePath": "/home/yuri/challenges/Illuvium/contracts/ERC20Enhanced.sol",
  "compiler": {
    "name": "solc",
    "version": "0.8.6+commit.11564f7e.Emscripten.clang"
  },
  "schemaVersion": "3.4.1",
  "updatedAt": "2021-11-11T14:56:31.276Z",
  "networkType": "ethereum",
  "devdoc": {
    "events": {
      "EmergencyWithdraw(address,address,address,uint256)": {
        "details": "Emmited when the emergency withdraw is used"
      },
      "RegisterEmergencyAddress(address,address)": {
        "details": "Emitted when a new emergency address has been defined"
      }
    },
    "kind": "dev",
    "methods": {
      "allowance(address,address)": {
        "details": "See {IERC20-allowance}."
      },
      "approve(address,uint256)": {
        "details": "See {IERC20-approve}. Requirements: - `spender` cannot be the zero address."
      },
      "balanceOf(address)": {
        "details": "See {IERC20-balanceOf}."
      },
      "decimals()": {
        "details": "Returns the number of decimals used to get its user representation. For example, if `decimals` equals `2`, a balance of `505` tokens should be displayed to a user as `5.05` (`505 / 10 ** 2`). Tokens usually opt for a value of 18, imitating the relationship between Ether and Wei. This is the value {ERC20} uses, unless this function is overridden; NOTE: This information is only used for _display_ purposes: it in no way affects any of the arithmetic of the contract, including {IERC20-balanceOf} and {IERC20-transfer}."
      },
      "decreaseAllowance(address,uint256)": {
        "details": "Atomically decreases the allowance granted to `spender` by the caller. This is an alternative to {approve} that can be used as a mitigation for problems described in {IERC20-approve}. Emits an {Approval} event indicating the updated allowance. Requirements: - `spender` cannot be the zero address. - `spender` must have allowance for the caller of at least `subtractedValue`."
      },
      "emergencyWithdrawWithSig(bytes,uint256)": {
        "details": "Emergency withdraw using a signed message.",
        "params": {
          "deadline": "The EIP-712 signature expiration/deadline timestamp  Emits a {EmergencyWithdraw} event. Requirements: - Message signer should not be the null address - Block timestamp should less than _exp (Expiration timestamp) - The emergency address should not be the null address - The signer should not be blacklisted - Balance of signer should be greater than ZERO",
          "signature": "The ECDSA signature"
        }
      },
      "getEmergencyAddress(address)": {
        "details": "Get the emergency address of `tokenHolder`.",
        "params": {
          "tokenHolder": "Token Holder address Requirements: - tokenHolder must be different from the null address"
        }
      },
      "increaseAllowance(address,uint256)": {
        "details": "Atomically increases the allowance granted to `spender` by the caller. This is an alternative to {approve} that can be used as a mitigation for problems described in {IERC20-approve}. Emits an {Approval} event indicating the updated allowance. Requirements: - `spender` cannot be the zero address."
      },
      "name()": {
        "details": "Returns the name of the token."
      },
      "registerEmergencyAddress(address)": {
        "details": "Register an emergency address (backup address) for the msg.sender.",
        "params": {
          "emergencyAddress": "The emergency address to be set Emits a {RegisterEmergencyAddress} event. Requirements: - msg.sender should not be blacklisted - emergencyAddress should not be blacklisted"
        }
      },
      "symbol()": {
        "details": "Returns the symbol of the token, usually a shorter version of the name."
      },
      "totalSupply()": {
        "details": "See {IERC20-totalSupply}."
      },
      "transfer(address,uint256)": {
        "details": "Transfer to `recipient` an `amount` of tokens.",
        "params": {
          "amount": "The amount of tokens to send  OBS: If the recipient is blacklisted, transfer amount to it's emergency address. Requirements: - msg.sender should not be blacklisted",
          "recipient": "The token recipient address, will be set to emergency address if it's blacklisted"
        }
      },
      "transferFrom(address,address,uint256)": {
        "details": "Transfer from `sender` to `recipient` an `amount` of tokens.",
        "params": {
          "amount": "The amount of tokens to send  OBS: If the recipient is blacklisted, transfer amount to it's emergency address. Requirements: - `sender` should not be blacklisted - Allowance should be greater than `amount`",
          "recipient": "The token recipient address, will be set to emergency address if it's blacklisted",
          "sender": "The token sender address"
        }
      }
    },
    "stateVariables": {
      "EMERGENCY_WITHDRAW_TYPEHASH": {
        "details": "Emergency withdraw typehash"
      },
      "emergency": {
        "details": "Mapping between addresses and it's emergency ones"
      }
    },
    "version": 1
  },
  "userdoc": {
    "kind": "user",
    "methods": {},
    "version": 1
  }
}