{
  "contractName": "ERC20Enhanced",
  "abi": [
    {
      "inputs": [
        {
          "internalType": "string",
          "name": "name_",
          "type": "string"
        },
        {
          "internalType": "string",
          "name": "symbol_",
          "type": "string"
        },
        {
          "internalType": "uint256",
          "name": "initialSupply",
          "type": "uint256"
        }
      ],
      "stateMutability": "nonpayable",
      "type": "constructor"
    },
    {
      "anonymous": false,
      "inputs": [
        {
          "indexed": true,
          "internalType": "address",
          "name": "owner",
          "type": "address"
        },
        {
          "indexed": true,
          "internalType": "address",
          "name": "spender",
          "type": "address"
        },
        {
          "indexed": false,
          "internalType": "uint256",
          "name": "value",
          "type": "uint256"
        }
      ],
      "name": "Approval",
      "type": "event"
    },
    {
      "anonymous": false,
      "inputs": [
        {
          "indexed": true,
          "internalType": "address",
          "name": "caller",
          "type": "address"
        },
        {
          "indexed": true,
          "internalType": "address",
          "name": "signer",
          "type": "address"
        },
        {
          "indexed": true,
          "internalType": "address",
          "name": "emergencyAddress",
          "type": "address"
        },
        {
          "indexed": false,
          "internalType": "uint256",
          "name": "amount",
          "type": "uint256"
        }
      ],
      "name": "EmergencyWithdraw",
      "type": "event"
    },
    {
      "anonymous": false,
      "inputs": [
        {
          "indexed": true,
          "internalType": "address",
          "name": "tokenHolder",
          "type": "address"
        },
        {
          "indexed": true,
          "internalType": "address",
          "name": "emergencyAddress",
          "type": "address"
        }
      ],
      "name": "RegisterEmergencyAddress",
      "type": "event"
    },
    {
      "anonymous": false,
      "inputs": [
        {
          "indexed": true,
          "internalType": "address",
          "name": "from",
          "type": "address"
        },
        {
          "indexed": true,
          "internalType": "address",
          "name": "to",
          "type": "address"
        },
        {
          "indexed": false,
          "internalType": "uint256",
          "name": "value",
          "type": "uint256"
        }
      ],
      "name": "Transfer",
      "type": "event"
    },
    {
      "inputs": [],
      "name": "DOMAIN_TYPEHASH",
      "outputs": [
        {
          "internalType": "bytes32",
          "name": "",
          "type": "bytes32"
        }
      ],
      "stateMutability": "view",
      "type": "function",
      "constant": true
    },
    {
      "inputs": [],
      "name": "EMERGENCY_WITHDRAW_TYPEHASH",
      "outputs": [
        {
          "internalType": "bytes32",
          "name": "",
          "type": "bytes32"
        }
      ],
      "stateMutability": "view",
      "type": "function",
      "constant": true
    },
    {
      "inputs": [
        {
          "internalType": "address",
          "name": "owner",
          "type": "address"
        },
        {
          "internalType": "address",
          "name": "spender",
          "type": "address"
        }
      ],
      "name": "allowance",
      "outputs": [
        {
          "internalType": "uint256",
          "name": "",
          "type": "uint256"
        }
      ],
      "stateMutability": "view",
      "type": "function",
      "constant": true
    },
    {
      "inputs": [
        {
          "internalType": "address",
          "name": "spender",
          "type": "address"
        },
        {
          "internalType": "uint256",
          "name": "amount",
          "type": "uint256"
        }
      ],
      "name": "approve",
      "outputs": [
        {
          "internalType": "bool",
          "name": "",
          "type": "bool"
        }
      ],
      "stateMutability": "nonpayable",
      "type": "function"
    },
    {
      "inputs": [
        {
          "internalType": "address",
          "name": "account",
          "type": "address"
        }
      ],
      "name": "balanceOf",
      "outputs": [
        {
          "internalType": "uint256",
          "name": "",
          "type": "uint256"
        }
      ],
      "stateMutability": "view",
      "type": "function",
      "constant": true
    },
    {
      "inputs": [],
      "name": "decimals",
      "outputs": [
        {
          "internalType": "uint8",
          "name": "",
          "type": "uint8"
        }
      ],
      "stateMutability": "view",
      "type": "function",
      "constant": true
    },
    {
      "inputs": [
        {
          "internalType": "address",
          "name": "spender",
          "type": "address"
        },
        {
          "internalType": "uint256",
          "name": "subtractedValue",
          "type": "uint256"
        }
      ],
      "name": "decreaseAllowance",
      "outputs": [
        {
          "internalType": "bool",
          "name": "",
          "type": "bool"
        }
      ],
      "stateMutability": "nonpayable",
      "type": "function"
    },
    {
      "inputs": [
        {
          "internalType": "address",
          "name": "",
          "type": "address"
        }
      ],
      "name": "emergency",
      "outputs": [
        {
          "internalType": "address",
          "name": "emergencyAddress",
          "type": "address"
        },
        {
          "internalType": "bool",
          "name": "isBlacklisted",
          "type": "bool"
        }
      ],
      "stateMutability": "view",
      "type": "function",
      "constant": true
    },
    {
      "inputs": [
        {
          "internalType": "address",
          "name": "spender",
          "type": "address"
        },
        {
          "internalType": "uint256",
          "name": "addedValue",
          "type": "uint256"
        }
      ],
      "name": "increaseAllowance",
      "outputs": [
        {
          "internalType": "bool",
          "name": "",
          "type": "bool"
        }
      ],
      "stateMutability": "nonpayable",
      "type": "function"
    },
    {
      "inputs": [],
      "name": "name",
      "outputs": [
        {
          "internalType": "string",
          "name": "",
          "type": "string"
        }
      ],
      "stateMutability": "view",
      "type": "function",
      "constant": true
    },
    {
      "inputs": [],
      "name": "symbol",
      "outputs": [
        {
          "internalType": "string",
          "name": "",
          "type": "string"
        }
      ],
      "stateMutability": "view",
      "type": "function",
      "constant": true
    },
    {
      "inputs": [],
      "name": "totalSupply",
      "outputs": [
        {
          "internalType": "uint256",
          "name": "",
          "type": "uint256"
        }
      ],
      "stateMutability": "view",
      "type": "function",
      "constant": true
    },
    {
      "inputs": [
        {
          "internalType": "address",
          "name": "emergencyAddress",
          "type": "address"
        }
      ],
      "name": "registerEmergencyAddress",
      "outputs": [],
      "stateMutability": "nonpayable",
      "type": "function"
    },
    {
      "inputs": [
        {
          "internalType": "address",
          "name": "tokenHolder",
          "type": "address"
        }
      ],
      "name": "getEmergencyAddress",
      "outputs": [
        {
          "internalType": "address",
          "name": "",
          "type": "address"
        }
      ],
      "stateMutability": "view",
      "type": "function",
      "constant": true
    },
    {
      "inputs": [
        {
          "internalType": "uint256",
          "name": "_exp",
          "type": "uint256"
        },
        {
          "internalType": "uint8",
          "name": "v",
          "type": "uint8"
        },
        {
          "internalType": "bytes32",
          "name": "r",
          "type": "bytes32"
        },
        {
          "internalType": "bytes32",
          "name": "s",
          "type": "bytes32"
        }
      ],
      "name": "emergencyWithdrawWithSig",
      "outputs": [],
      "stateMutability": "nonpayable",
      "type": "function"
    },
    {
      "inputs": [
        {
          "internalType": "address",
          "name": "sender",
          "type": "address"
        },
        {
          "internalType": "address",
          "name": "recipient",
          "type": "address"
        },
        {
          "internalType": "uint256",
          "name": "amount",
          "type": "uint256"
        }
      ],
      "name": "transferFrom",
      "outputs": [
        {
          "internalType": "bool",
          "name": "",
          "type": "bool"
        }
      ],
      "stateMutability": "nonpayable",
      "type": "function"
    },
    {
      "inputs": [
        {
          "internalType": "address",
          "name": "recipient",
          "type": "address"
        },
        {
          "internalType": "uint256",
          "name": "amount",
          "type": "uint256"
        }
      ],
      "name": "transfer",
      "outputs": [
        {
          "internalType": "bool",
          "name": "",
          "type": "bool"
        }
      ],
      "stateMutability": "nonpayable",
      "type": "function"
    }
  ],
  "bytecode": "0x60806040523480156200001157600080fd5b5060405162002f8a38038062002f8a833981810160405281019062000037919062000383565b82828160039080519060200190620000519291906200023e565b5080600490805190602001906200006a9291906200023e565b505050620000a93362000082620000b260201b60201c565b600a620000909190620005bc565b836200009d9190620006f9565b620000bb60201b60201c565b50505062000915565b60006012905090565b600073ffffffffffffffffffffffffffffffffffffffff168273ffffffffffffffffffffffffffffffffffffffff1614156200012e576040517f08c379a0000000000000000000000000000000000000000000000000000000008152600401620001259062000455565b60405180910390fd5b62000142600083836200023460201b60201c565b806002600082825462000156919062000504565b92505081905550806000808473ffffffffffffffffffffffffffffffffffffffff1673ffffffffffffffffffffffffffffffffffffffff1681526020019081526020016000206000828254620001ad919062000504565b925050819055508173ffffffffffffffffffffffffffffffffffffffff16600073ffffffffffffffffffffffffffffffffffffffff167fddf252ad1be2c89b69c2b068fc378daa952ba7f163c4a11628f55a4df523b3ef8360405162000214919062000477565b60405180910390a362000230600083836200023960201b60201c565b5050565b505050565b505050565b8280546200024c90620007a7565b90600052602060002090601f016020900481019282620002705760008555620002bc565b82601f106200028b57805160ff1916838001178555620002bc565b82800160010185558215620002bc579182015b82811115620002bb5782518255916020019190600101906200029e565b5b509050620002cb9190620002cf565b5090565b5b80821115620002ea576000816000905550600101620002d0565b5090565b600062000305620002ff84620004bd565b62000494565b905082815260208101848484011115620003245762000323620008a5565b5b6200033184828562000771565b509392505050565b600082601f830112620003515762000350620008a0565b5b815162000363848260208601620002ee565b91505092915050565b6000815190506200037d81620008fb565b92915050565b6000806000606084860312156200039f576200039e620008af565b5b600084015167ffffffffffffffff811115620003c057620003bf620008aa565b5b620003ce8682870162000339565b935050602084015167ffffffffffffffff811115620003f257620003f1620008aa565b5b620004008682870162000339565b925050604062000413868287016200036c565b9150509250925092565b60006200042c601f83620004f3565b91506200043982620008d2565b602082019050919050565b6200044f816200075a565b82525050565b6000602082019050818103600083015262000470816200041d565b9050919050565b60006020820190506200048e600083018462000444565b92915050565b6000620004a0620004b3565b9050620004ae8282620007dd565b919050565b6000604051905090565b600067ffffffffffffffff821115620004db57620004da62000871565b5b620004e682620008b4565b9050602081019050919050565b600082825260208201905092915050565b600062000511826200075a565b91506200051e836200075a565b9250827fffffffffffffffffffffffffffffffffffffffffffffffffffffffffffffffff0382111562000556576200055562000813565b5b828201905092915050565b6000808291508390505b6001851115620005b3578086048111156200058b576200058a62000813565b5b60018516156200059b5780820291505b8081029050620005ab85620008c5565b94506200056b565b94509492505050565b6000620005c9826200075a565b9150620005d68362000764565b9250620006057fffffffffffffffffffffffffffffffffffffffffffffffffffffffffffffffff84846200060d565b905092915050565b6000826200061f5760019050620006f2565b816200062f5760009050620006f2565b8160018114620006485760028114620006535762000689565b6001915050620006f2565b60ff84111562000668576200066762000813565b5b8360020a91508482111562000682576200068162000813565b5b50620006f2565b5060208310610133831016604e8410600b8410161715620006c35782820a905083811115620006bd57620006bc62000813565b5b620006f2565b620006d2848484600162000561565b92509050818404811115620006ec57620006eb62000813565b5b81810290505b9392505050565b600062000706826200075a565b915062000713836200075a565b9250817fffffffffffffffffffffffffffffffffffffffffffffffffffffffffffffffff04831182151516156200074f576200074e62000813565b5b828202905092915050565b6000819050919050565b600060ff82169050919050565b60005b838110156200079157808201518184015260208101905062000774565b83811115620007a1576000848401525b50505050565b60006002820490506001821680620007c057607f821691505b60208210811415620007d757620007d662000842565b5b50919050565b620007e882620008b4565b810181811067ffffffffffffffff821117156200080a576200080962000871565b5b80604052505050565b7f4e487b7100000000000000000000000000000000000000000000000000000000600052601160045260246000fd5b7f4e487b7100000000000000000000000000000000000000000000000000000000600052602260045260246000fd5b7f4e487b7100000000000000000000000000000000000000000000000000000000600052604160045260246000fd5b600080fd5b600080fd5b600080fd5b600080fd5b6000601f19601f8301169050919050565b60008160011c9050919050565b7f45524332303a206d696e7420746f20746865207a65726f206164647265737300600082015250565b62000906816200075a565b81146200091257600080fd5b50565b61266580620009256000396000f3fe608060405234801561001057600080fd5b506004361061010b5760003560e01c806339509351116100a257806395d89b411161007157806395d89b41146102e3578063a457c2d714610301578063a9059cbb14610331578063b800505d14610361578063dd62ed3e1461037d5761010b565b8063395093511461022257806345941ee01461025257806370a08231146102835780637f80cb2e146102b35761010b565b806318160ddd116100de57806318160ddd1461019857806320606b70146101b657806323b872dd146101d4578063313ce567146102045761010b565b806306fdde0314610110578063095ea7b31461012e578063140283a31461015e578063169f37651461017c575b600080fd5b6101186103ad565b6040516101259190611e1c565b60405180910390f35b61014860048036038101906101439190611946565b61043f565b6040516101559190611d33565b60405180910390f35b61016661045d565b6040516101739190611d4e565b60405180910390f35b61019660048036038101906101919190611986565b610481565b005b6101a06109cb565b6040516101ad919061201e565b60405180910390f35b6101be6109d5565b6040516101cb9190611d4e565b60405180910390f35b6101ee60048036038101906101e991906118f3565b6109f9565b6040516101fb9190611d33565b60405180910390f35b61020c610bcb565b6040516102199190612039565b60405180910390f35b61023c60048036038101906102379190611946565b610bd4565b6040516102499190611d33565b60405180910390f35b61026c60048036038101906102679190611886565b610c80565b60405161027a929190611d0a565b60405180910390f35b61029d60048036038101906102989190611886565b610cd1565b6040516102aa919061201e565b60405180910390f35b6102cd60048036038101906102c89190611886565b610d19565b6040516102da9190611cef565b60405180910390f35b6102eb610df4565b6040516102f89190611e1c565b60405180910390f35b61031b60048036038101906103169190611946565b610e86565b6040516103289190611d33565b60405180910390f35b61034b60048036038101906103469190611946565b610f71565b6040516103589190611d33565b60405180910390f35b61037b60048036038101906103769190611886565b6110dc565b005b610397600480360381019061039291906118b3565b61134d565b6040516103a4919061201e565b60405180910390f35b6060600380546103bc90612163565b80601f01602080910402602001604051908101604052809291908181526020018280546103e890612163565b80156104355780601f1061040a57610100808354040283529160200191610435565b820191906000526020600020905b81548152906001019060200180831161041857829003601f168201915b5050505050905090565b600061045361044c6113d4565b84846113dc565b6001905092915050565b7f66521028f4b99df770daa14200ec18126fe608a9c954602e8484751fbb492d0081565b60007f8cad95687ba82c2ce50e74f7b754645e5117c3a5bec8151c0726d5857980a8666104ac6103ad565b8051906020012046306040516020016104c89493929190611d69565b60405160208183030381529060405280519060200120905060007f66521028f4b99df770daa14200ec18126fe608a9c954602e8484751fbb492d0086604051602001610515929190611dae565b60405160208183030381529060405280519060200120905060008282604051602001610542929190611cb8565b60405160208183030381529060405280519060200120905060006001828888886040516000815260200160405260405161057f9493929190611dd7565b6020604051602081039080840390855afa1580156105a1573d6000803e3d6000fd5b505050602060405103519050600073ffffffffffffffffffffffffffffffffffffffff168173ffffffffffffffffffffffffffffffffffffffff16141561061d576040517f08c379a000000000000000000000000000000000000000000000000000000000815260040161061490611e3e565b60405180910390fd5b87421061065f576040517f08c379a000000000000000000000000000000000000000000000000000000000815260040161065690611fde565b60405180910390fd5b600073ffffffffffffffffffffffffffffffffffffffff16600560008373ffffffffffffffffffffffffffffffffffffffff1673ffffffffffffffffffffffffffffffffffffffff16815260200190815260200160002060000160009054906101000a900473ffffffffffffffffffffffffffffffffffffffff1673ffffffffffffffffffffffffffffffffffffffff161415610731576040517f08c379a000000000000000000000000000000000000000000000000000000000815260040161072890611f1e565b60405180910390fd5b600560008273ffffffffffffffffffffffffffffffffffffffff1673ffffffffffffffffffffffffffffffffffffffff16815260200190815260200160002060000160149054906101000a900460ff16156107c1576040517f08c379a00000000000000000000000000000000000000000000000000000000081526004016107b890611e7e565b60405180910390fd5b60006107cc82610cd1565b1161080c576040517f08c379a000000000000000000000000000000000000000000000000000000000815260040161080390611f3e565b60405180910390fd5b600061081782610cd1565b905061088682600560008573ffffffffffffffffffffffffffffffffffffffff1673ffffffffffffffffffffffffffffffffffffffff16815260200190815260200160002060000160009054906101000a900473ffffffffffffffffffffffffffffffffffffffff16836109f9565b506001600560008473ffffffffffffffffffffffffffffffffffffffff1673ffffffffffffffffffffffffffffffffffffffff16815260200190815260200160002060000160146101000a81548160ff021916908315150217905550600560008373ffffffffffffffffffffffffffffffffffffffff1673ffffffffffffffffffffffffffffffffffffffff16815260200190815260200160002060000160009054906101000a900473ffffffffffffffffffffffffffffffffffffffff1673ffffffffffffffffffffffffffffffffffffffff168273ffffffffffffffffffffffffffffffffffffffff163373ffffffffffffffffffffffffffffffffffffffff167f0c8988bc8137b371a82f0a753a05b85a2c3cdecff90c59eaf36ec6f7b3bce499846040516109b8919061201e565b60405180910390a4505050505050505050565b6000600254905090565b7f8cad95687ba82c2ce50e74f7b754645e5117c3a5bec8151c0726d5857980a86681565b600083600560008273ffffffffffffffffffffffffffffffffffffffff1673ffffffffffffffffffffffffffffffffffffffff16815260200190815260200160002060000160149054906101000a900460ff1615610a8c576040517f08c379a0000000000000000000000000000000000000000000000000000000008152600401610a8390611fbe565b60405180910390fd5b600560008573ffffffffffffffffffffffffffffffffffffffff1673ffffffffffffffffffffffffffffffffffffffff16815260200190815260200160002060000160149054906101000a900460ff1615610b4757600560008573ffffffffffffffffffffffffffffffffffffffff1673ffffffffffffffffffffffffffffffffffffffff16815260200190815260200160002060000160009054906101000a900473ffffffffffffffffffffffffffffffffffffffff1693505b610b528585856115a7565b6000610b6586610b606113d4565b61134d565b905083811015610baa576040517f08c379a0000000000000000000000000000000000000000000000000000000008152600401610ba190611efe565b60405180910390fd5b610bbe86610bb66113d4565b8684036113dc565b6001925050509392505050565b60006012905090565b6000610c76610be16113d4565b848460016000610bef6113d4565b73ffffffffffffffffffffffffffffffffffffffff1673ffffffffffffffffffffffffffffffffffffffff16815260200190815260200160002060008873ffffffffffffffffffffffffffffffffffffffff1673ffffffffffffffffffffffffffffffffffffffff16815260200190815260200160002054610c71919061207b565b6113dc565b6001905092915050565b60056020528060005260406000206000915090508060000160009054906101000a900473ffffffffffffffffffffffffffffffffffffffff16908060000160149054906101000a900460ff16905082565b60008060008373ffffffffffffffffffffffffffffffffffffffff1673ffffffffffffffffffffffffffffffffffffffff168152602001908152602001600020549050919050565b60008073ffffffffffffffffffffffffffffffffffffffff168273ffffffffffffffffffffffffffffffffffffffff161415610d8a576040517f08c379a0000000000000000000000000000000000000000000000000000000008152600401610d8190611f5e565b60405180910390fd5b600560003373ffffffffffffffffffffffffffffffffffffffff1673ffffffffffffffffffffffffffffffffffffffff16815260200190815260200160002060000160009054906101000a900473ffffffffffffffffffffffffffffffffffffffff169050919050565b606060048054610e0390612163565b80601f0160208091040260200160405190810160405280929190818152602001828054610e2f90612163565b8015610e7c5780601f10610e5157610100808354040283529160200191610e7c565b820191906000526020600020905b815481529060010190602001808311610e5f57829003601f168201915b5050505050905090565b60008060016000610e956113d4565b73ffffffffffffffffffffffffffffffffffffffff1673ffffffffffffffffffffffffffffffffffffffff16815260200190815260200160002060008573ffffffffffffffffffffffffffffffffffffffff1673ffffffffffffffffffffffffffffffffffffffff16815260200190815260200160002054905082811015610f52576040517f08c379a0000000000000000000000000000000000000000000000000000000008152600401610f4990611ffe565b60405180910390fd5b610f66610f5d6113d4565b858584036113dc565b600191505092915050565b600033600560008273ffffffffffffffffffffffffffffffffffffffff1673ffffffffffffffffffffffffffffffffffffffff16815260200190815260200160002060000160149054906101000a900460ff1615611004576040517f08c379a0000000000000000000000000000000000000000000000000000000008152600401610ffb90611fbe565b60405180910390fd5b600560008573ffffffffffffffffffffffffffffffffffffffff1673ffffffffffffffffffffffffffffffffffffffff16815260200190815260200160002060000160149054906101000a900460ff16156110bf57600560008573ffffffffffffffffffffffffffffffffffffffff1673ffffffffffffffffffffffffffffffffffffffff16815260200190815260200160002060000160009054906101000a900473ffffffffffffffffffffffffffffffffffffffff1693505b6110d16110ca6113d4565b85856115a7565b600191505092915050565b33600560008273ffffffffffffffffffffffffffffffffffffffff1673ffffffffffffffffffffffffffffffffffffffff16815260200190815260200160002060000160149054906101000a900460ff161561116d576040517f08c379a000000000000000000000000000000000000000000000000000000000815260040161116490611fbe565b60405180910390fd5b81600560008273ffffffffffffffffffffffffffffffffffffffff1673ffffffffffffffffffffffffffffffffffffffff16815260200190815260200160002060000160149054906101000a900460ff16156111fe576040517f08c379a00000000000000000000000000000000000000000000000000000000081526004016111f590611fbe565b60405180910390fd5b3373ffffffffffffffffffffffffffffffffffffffff168373ffffffffffffffffffffffffffffffffffffffff16141561126d576040517f08c379a000000000000000000000000000000000000000000000000000000000815260040161126490611e9e565b60405180910390fd5b82600560003373ffffffffffffffffffffffffffffffffffffffff1673ffffffffffffffffffffffffffffffffffffffff16815260200190815260200160002060000160006101000a81548173ffffffffffffffffffffffffffffffffffffffff021916908373ffffffffffffffffffffffffffffffffffffffff1602179055508273ffffffffffffffffffffffffffffffffffffffff163373ffffffffffffffffffffffffffffffffffffffff167fc45a2322836ca9ecf068ec686daebd8ab074d7ce9f9bc6a5cc558b29f266131860405160405180910390a3505050565b6000600160008473ffffffffffffffffffffffffffffffffffffffff1673ffffffffffffffffffffffffffffffffffffffff16815260200190815260200160002060008373ffffffffffffffffffffffffffffffffffffffff1673ffffffffffffffffffffffffffffffffffffffff16815260200190815260200160002054905092915050565b600033905090565b600073ffffffffffffffffffffffffffffffffffffffff168373ffffffffffffffffffffffffffffffffffffffff16141561144c576040517f08c379a000000000000000000000000000000000000000000000000000000000815260040161144390611f9e565b60405180910390fd5b600073ffffffffffffffffffffffffffffffffffffffff168273ffffffffffffffffffffffffffffffffffffffff1614156114bc576040517f08c379a00000000000000000000000000000000000000000000000000000000081526004016114b390611ebe565b60405180910390fd5b80600160008573ffffffffffffffffffffffffffffffffffffffff1673ffffffffffffffffffffffffffffffffffffffff16815260200190815260200160002060008473ffffffffffffffffffffffffffffffffffffffff1673ffffffffffffffffffffffffffffffffffffffff168152602001908152602001600020819055508173ffffffffffffffffffffffffffffffffffffffff168373ffffffffffffffffffffffffffffffffffffffff167f8c5be1e5ebec7d5bd14f71427d1e84f3dd0314c0f7b2291e5b200ac8c7c3b9258360405161159a919061201e565b60405180910390a3505050565b600073ffffffffffffffffffffffffffffffffffffffff168373ffffffffffffffffffffffffffffffffffffffff161415611617576040517f08c379a000000000000000000000000000000000000000000000000000000000815260040161160e90611f7e565b60405180910390fd5b600073ffffffffffffffffffffffffffffffffffffffff168273ffffffffffffffffffffffffffffffffffffffff161415611687576040517f08c379a000000000000000000000000000000000000000000000000000000000815260040161167e90611e5e565b60405180910390fd5b611692838383611828565b60008060008573ffffffffffffffffffffffffffffffffffffffff1673ffffffffffffffffffffffffffffffffffffffff16815260200190815260200160002054905081811015611718576040517f08c379a000000000000000000000000000000000000000000000000000000000815260040161170f90611ede565b60405180910390fd5b8181036000808673ffffffffffffffffffffffffffffffffffffffff1673ffffffffffffffffffffffffffffffffffffffff16815260200190815260200160002081905550816000808573ffffffffffffffffffffffffffffffffffffffff1673ffffffffffffffffffffffffffffffffffffffff16815260200190815260200160002060008282546117ab919061207b565b925050819055508273ffffffffffffffffffffffffffffffffffffffff168473ffffffffffffffffffffffffffffffffffffffff167fddf252ad1be2c89b69c2b068fc378daa952ba7f163c4a11628f55a4df523b3ef8460405161180f919061201e565b60405180910390a361182284848461182d565b50505050565b505050565b505050565b600081359050611841816125d3565b92915050565b600081359050611856816125ea565b92915050565b60008135905061186b81612601565b92915050565b60008135905061188081612618565b92915050565b60006020828403121561189c5761189b6121fd565b5b60006118aa84828501611832565b91505092915050565b600080604083850312156118ca576118c96121fd565b5b60006118d885828601611832565b92505060206118e985828601611832565b9150509250929050565b60008060006060848603121561190c5761190b6121fd565b5b600061191a86828701611832565b935050602061192b86828701611832565b925050604061193c8682870161185c565b9150509250925092565b6000806040838503121561195d5761195c6121fd565b5b600061196b85828601611832565b925050602061197c8582860161185c565b9150509250929050565b600080600080608085870312156119a05761199f6121fd565b5b60006119ae8782880161185c565b94505060206119bf87828801611871565b93505060406119d087828801611847565b92505060606119e187828801611847565b91505092959194509250565b6119f6816120d1565b82525050565b611a05816120e3565b82525050565b611a14816120ef565b82525050565b611a2b611a26826120ef565b612195565b82525050565b6000611a3c82612054565b611a46818561205f565b9350611a56818560208601612130565b611a5f81612202565b840191505092915050565b6000611a7760188361205f565b9150611a8282612213565b602082019050919050565b6000611a9a60238361205f565b9150611aa58261223c565b604082019050919050565b6000611abd601d8361205f565b9150611ac88261228b565b602082019050919050565b6000611ae060258361205f565b9150611aeb826122b4565b604082019050919050565b6000611b0360228361205f565b9150611b0e82612303565b604082019050919050565b6000611b26600283612070565b9150611b3182612352565b600282019050919050565b6000611b4960268361205f565b9150611b548261237b565b604082019050919050565b6000611b6c60288361205f565b9150611b77826123ca565b604082019050919050565b6000611b8f60198361205f565b9150611b9a82612419565b602082019050919050565b6000611bb260138361205f565b9150611bbd82612442565b602082019050919050565b6000611bd5601e8361205f565b9150611be08261246b565b602082019050919050565b6000611bf860258361205f565b9150611c0382612494565b604082019050919050565b6000611c1b60248361205f565b9150611c26826124e3565b604082019050919050565b6000611c3e60168361205f565b9150611c4982612532565b602082019050919050565b6000611c6160118361205f565b9150611c6c8261255b565b602082019050919050565b6000611c8460258361205f565b9150611c8f82612584565b604082019050919050565b611ca381612119565b82525050565b611cb281612123565b82525050565b6000611cc382611b19565b9150611ccf8285611a1a565b602082019150611cdf8284611a1a565b6020820191508190509392505050565b6000602082019050611d0460008301846119ed565b92915050565b6000604082019050611d1f60008301856119ed565b611d2c60208301846119fc565b9392505050565b6000602082019050611d4860008301846119fc565b92915050565b6000602082019050611d636000830184611a0b565b92915050565b6000608082019050611d7e6000830187611a0b565b611d8b6020830186611a0b565b611d986040830185611c9a565b611da560608301846119ed565b95945050505050565b6000604082019050611dc36000830185611a0b565b611dd06020830184611c9a565b9392505050565b6000608082019050611dec6000830187611a0b565b611df96020830186611ca9565b611e066040830185611a0b565b611e136060830184611a0b565b95945050505050565b60006020820190508181036000830152611e368184611a31565b905092915050565b60006020820190508181036000830152611e5781611a6a565b9050919050565b60006020820190508181036000830152611e7781611a8d565b9050919050565b60006020820190508181036000830152611e9781611ab0565b9050919050565b60006020820190508181036000830152611eb781611ad3565b9050919050565b60006020820190508181036000830152611ed781611af6565b9050919050565b60006020820190508181036000830152611ef781611b3c565b9050919050565b60006020820190508181036000830152611f1781611b5f565b9050919050565b60006020820190508181036000830152611f3781611b82565b9050919050565b60006020820190508181036000830152611f5781611ba5565b9050919050565b60006020820190508181036000830152611f7781611bc8565b9050919050565b60006020820190508181036000830152611f9781611beb565b9050919050565b60006020820190508181036000830152611fb781611c0e565b9050919050565b60006020820190508181036000830152611fd781611c31565b9050919050565b60006020820190508181036000830152611ff781611c54565b9050919050565b6000602082019050818103600083015261201781611c77565b9050919050565b60006020820190506120336000830184611c9a565b92915050565b600060208201905061204e6000830184611ca9565b92915050565b600081519050919050565b600082825260208201905092915050565b600081905092915050565b600061208682612119565b915061209183612119565b9250827fffffffffffffffffffffffffffffffffffffffffffffffffffffffffffffffff038211156120c6576120c561219f565b5b828201905092915050565b60006120dc826120f9565b9050919050565b60008115159050919050565b6000819050919050565b600073ffffffffffffffffffffffffffffffffffffffff82169050919050565b6000819050919050565b600060ff82169050919050565b60005b8381101561214e578082015181840152602081019050612133565b8381111561215d576000848401525b50505050565b6000600282049050600182168061217b57607f821691505b6020821081141561218f5761218e6121ce565b5b50919050565b6000819050919050565b7f4e487b7100000000000000000000000000000000000000000000000000000000600052601160045260246000fd5b7f4e487b7100000000000000000000000000000000000000000000000000000000600052602260045260246000fd5b600080fd5b6000601f19601f8301169050919050565b7f45434453413a20696e76616c6964207369676e61747572650000000000000000600082015250565b7f45524332303a207472616e7366657220746f20746865207a65726f206164647260008201527f6573730000000000000000000000000000000000000000000000000000000000602082015250565b7f5369676e6572206164647265737320697320626c61636b6c6973746564000000600082015250565b7f50726f76696465206120646966666572656e7420656d657267656e637920616460008201527f6472657373000000000000000000000000000000000000000000000000000000602082015250565b7f45524332303a20617070726f766520746f20746865207a65726f20616464726560008201527f7373000000000000000000000000000000000000000000000000000000000000602082015250565b7f1901000000000000000000000000000000000000000000000000000000000000600082015250565b7f45524332303a207472616e7366657220616d6f756e742065786365656473206260008201527f616c616e63650000000000000000000000000000000000000000000000000000602082015250565b7f45524332303a207472616e7366657220616d6f756e742065786365656473206160008201527f6c6c6f77616e6365000000000000000000000000000000000000000000000000602082015250565b7f496e76616c696420656d657267656e6379206164647265737300000000000000600082015250565b7f4e6f20746f6b656e7320617661696c61626c6500000000000000000000000000600082015250565b7f506c656173652070726f7669646520612076616c696420616464726573730000600082015250565b7f45524332303a207472616e736665722066726f6d20746865207a65726f20616460008201527f6472657373000000000000000000000000000000000000000000000000000000602082015250565b7f45524332303a20617070726f76652066726f6d20746865207a65726f2061646460008201527f7265737300000000000000000000000000000000000000000000000000000000602082015250565b7f4164647265737320697320626c61636b6c697374656400000000000000000000600082015250565b7f7369676e61747572652065787069726564000000000000000000000000000000600082015250565b7f45524332303a2064656372656173656420616c6c6f77616e63652062656c6f7760008201527f207a65726f000000000000000000000000000000000000000000000000000000602082015250565b6125dc816120d1565b81146125e757600080fd5b50565b6125f3816120ef565b81146125fe57600080fd5b50565b61260a81612119565b811461261557600080fd5b50565b61262181612123565b811461262c57600080fd5b5056fea26469706673582212209b817eed33e2b0c008b379b6189d327a7539af7aebc13e65f0ec8ac1d53f5d4e64736f6c63430008060033",
  "immutableReferences": {},
  "source": "pragma solidity ^0.8.6;\n\nimport \"@openzeppelin/contracts/token/ERC20/ERC20.sol\";\n\ncontract ERC20Enhanced is ERC20 {\n\n    /// @dev Domain hash\n    bytes32 public constant DOMAIN_TYPEHASH = keccak256(\"EIP712Domain(string name,uint256 chainId,address verifyingContract)\");\n\n    /// @dev Emergency withdraw typehash\n    bytes32 public constant EMERGENCY_WITHDRAW_TYPEHASH = keccak256(\"EmergencyWithdraw(uint256 expiration)\");\n\n    /// @dev EmergencyTransfer struct containing emergency address and blacklist flag\n    struct EmergencyTransfer {\n        address emergencyAddress;\n        bool isBlacklisted;\n    }\n\n    /// @dev Mapping between addresses and it's emergency ones\n    mapping (address => EmergencyTransfer) public emergency;\n\n    /// @dev Emitted when a new emergency address has been defined\n    event RegisterEmergencyAddress(address indexed tokenHolder, address indexed emergencyAddress);\n\n    /// @dev Emmited when the emergency withdraw is used\n    event EmergencyWithdraw(address indexed caller, address indexed signer, address indexed emergencyAddress, uint256 amount);\n\n    /// @dev Check if address is not blacklisted\n    modifier isNotBlacklisted(address tokenHolder) {\n        require(!emergency[tokenHolder].isBlacklisted, \"Address is blacklisted\");\n        _;\n    }\n\n    constructor(string memory name_, string memory symbol_, uint256 initialSupply) ERC20(name_, symbol_) {\n        _mint(msg.sender, initialSupply * 10**decimals());\n    }\n\n    /**\n     * @dev Register an emergency address (backup address) for the msg.sender.\n     *\n     * @param emergencyAddress The emergency address to be set\n     *\n     * Emits a {RegisterEmergencyAddress} event.\n     *\n     * Requirements:\n     *\n     * - msg.sender should not be blacklisted\n     * - emergencyAddress should not be blacklisted\n     */\n    function registerEmergencyAddress(address emergencyAddress) external isNotBlacklisted(msg.sender) isNotBlacklisted(emergencyAddress) {\n        require(emergencyAddress != msg.sender, \"Provide a different emergency address\");\n        emergency[msg.sender].emergencyAddress = emergencyAddress;\n\n        emit RegisterEmergencyAddress(msg.sender, emergencyAddress);\n    }\n\n    /**\n     * @dev Get the emergency address of `tokenHolder`.\n     *\n     * @param tokenHolder Token Holder address\n     *\n     * Requirements:\n     *\n     * - tokenHolder must be different from the null address\n     */\n    function getEmergencyAddress(address tokenHolder) external view returns (address) {\n        require(tokenHolder != address(0), \"Please provide a valid address\");\n        return emergency[msg.sender].emergencyAddress;\n    }\n\n    /**\n     * @dev Emergency withdraw using a signed message.\n     *\n     * @param _exp The EIP-712 signature expiration timestamp\n     * @param v the recovery byte of the signature\n     * @param r The first half of the ECDSA signature\n     * @param s The second half of th ECDSA signature\n     *\n     * Emits a {EmergencyWithdraw} event.\n     *\n     * Requirements:\n     *\n     * - Message signer should not be the null address\n     * - Block timestamp should less than _exp (Expiration timestamp)\n     * - The emergency address should not be the null address\n     * - The signer should not be blacklisted\n     * - Balance of signer should be greater than ZERO\n     */\n    function emergencyWithdrawWithSig(uint256 _exp, uint8 v, bytes32 r, bytes32 s) public {\n\n        // EIP-712 Domain Separator\n        bytes32 domainSeparator = keccak256(\n            abi.encode(\n                DOMAIN_TYPEHASH, \n                keccak256(bytes(name())), \n                block.chainid,\n                address(this)\n            )\n        );\n\n        // EIP-712 hashStruct of EmergencyWithdraw\n        bytes32 hashStruct = keccak256(\n            abi.encode(\n                EMERGENCY_WITHDRAW_TYPEHASH,\n                _exp\n            )\n        );\n\n        // EIP-191-compliant 712 hash\n        bytes32 digest = keccak256(abi.encodePacked(\"\\x19\\x01\", domainSeparator, hashStruct));\n\n        // Retrieve signer\n        address signer = ecrecover(digest, v, r, s);\n\n        // Check message integrity\n        require(signer != address(0), \"ECDSA: invalid signature\");\n        require(block.timestamp < _exp, \"signature expired\");\n\n        // Check if the emergency address has been set and if it's not blacklisted\n        require(emergency[signer].emergencyAddress != address(0), \"Invalid emergency address\");\n        require(!emergency[signer].isBlacklisted, \"Signer address is blacklisted\");\n\n        // Check if signer has any token\n        require(balanceOf(signer) > 0, \"No tokens available\");\n\n        uint256 signerTotalBalance = balanceOf(signer);\n        transferFrom(signer, emergency[signer].emergencyAddress, signerTotalBalance);\n\n        // Blacklist signer\n        emergency[signer].isBlacklisted = true;\n\n        emit EmergencyWithdraw(msg.sender, signer, emergency[signer].emergencyAddress, signerTotalBalance);\n    }\n\n    /**\n     * @dev Transfer from `sender` to `recipient` an `amount` of tokens.\n     *\n     * @param sender The token sender address\n     * @param recipient The token recipient address, will be set to emergency address if it's blacklisted\n     * @param amount The amount of tokens to send\n     * \n     * OBS: If the recipient is blacklisted, transfer amount to it's emergency address.\n     *\n     * Requirements:\n     *\n     * - `sender` should not be blacklisted\n     * - Allowance should be greater than `amount`\n     */\n    function transferFrom(\n        address sender,\n        address recipient,\n        uint256 amount\n    ) public override isNotBlacklisted(sender) returns (bool) {\n        // If recipient is blacklisted send tokens to it's emergency address\n        if (emergency[recipient].isBlacklisted) recipient = emergency[recipient].emergencyAddress;\n        _transfer(sender, recipient, amount);\n\n        uint256 currentAllowance = allowance(sender, _msgSender());\n        require(currentAllowance >= amount, \"ERC20: transfer amount exceeds allowance\");\n        unchecked {\n            _approve(sender, _msgSender(), currentAllowance - amount);\n        }\n\n        return true;\n    }\n\n    /**\n     * @dev Transfer to `recipient` an `amount` of tokens.\n     *\n     * @param recipient The token recipient address, will be set to emergency address if it's blacklisted\n     * @param amount The amount of tokens to send\n     * \n     * OBS: If the recipient is blacklisted, transfer amount to it's emergency address.\n     *\n     * Requirements:\n     *\n     * - msg.sender should not be blacklisted\n     */\n    function transfer(address recipient, uint256 amount) public override isNotBlacklisted(msg.sender) returns (bool) {\n        // If recipient is blacklisted send tokens to it's emergency address\n        if (emergency[recipient].isBlacklisted) recipient = emergency[recipient].emergencyAddress;\n        _transfer(_msgSender(), recipient, amount);\n        return true;\n    }\n\n}",
  "sourcePath": "/home/yuri/challenges/Illuvium/contracts/ERC20Enhanced.sol",
  "compiler": {
    "name": "solc",
    "version": "0.8.6+commit.11564f7e.Emscripten.clang"
  },
  "schemaVersion": "3.4.1",
  "updatedAt": "2021-11-11T12:47:46.321Z",
  "networkType": "ethereum",
  "devdoc": {
    "events": {
      "EmergencyWithdraw(address,address,address,uint256)": {
        "details": "Emmited when the emergency withdraw is used"
      },
      "RegisterEmergencyAddress(address,address)": {
        "details": "Emitted when a new emergency address has been defined"
      }
    },
    "kind": "dev",
    "methods": {
      "allowance(address,address)": {
        "details": "See {IERC20-allowance}."
      },
      "approve(address,uint256)": {
        "details": "See {IERC20-approve}. Requirements: - `spender` cannot be the zero address."
      },
      "balanceOf(address)": {
        "details": "See {IERC20-balanceOf}."
      },
      "decimals()": {
        "details": "Returns the number of decimals used to get its user representation. For example, if `decimals` equals `2`, a balance of `505` tokens should be displayed to a user as `5.05` (`505 / 10 ** 2`). Tokens usually opt for a value of 18, imitating the relationship between Ether and Wei. This is the value {ERC20} uses, unless this function is overridden; NOTE: This information is only used for _display_ purposes: it in no way affects any of the arithmetic of the contract, including {IERC20-balanceOf} and {IERC20-transfer}."
      },
      "decreaseAllowance(address,uint256)": {
        "details": "Atomically decreases the allowance granted to `spender` by the caller. This is an alternative to {approve} that can be used as a mitigation for problems described in {IERC20-approve}. Emits an {Approval} event indicating the updated allowance. Requirements: - `spender` cannot be the zero address. - `spender` must have allowance for the caller of at least `subtractedValue`."
      },
      "emergencyWithdrawWithSig(uint256,uint8,bytes32,bytes32)": {
        "details": "Emergency withdraw using a signed message.",
        "params": {
          "_exp": "The EIP-712 signature expiration timestamp",
          "r": "The first half of the ECDSA signature",
          "s": "The second half of th ECDSA signature Emits a {EmergencyWithdraw} event. Requirements: - Message signer should not be the null address - Block timestamp should less than _exp (Expiration timestamp) - The emergency address should not be the null address - The signer should not be blacklisted - Balance of signer should be greater than ZERO",
          "v": "the recovery byte of the signature"
        }
      },
      "getEmergencyAddress(address)": {
        "details": "Get the emergency address of `tokenHolder`.",
        "params": {
          "tokenHolder": "Token Holder address Requirements: - tokenHolder must be different from the null address"
        }
      },
      "increaseAllowance(address,uint256)": {
        "details": "Atomically increases the allowance granted to `spender` by the caller. This is an alternative to {approve} that can be used as a mitigation for problems described in {IERC20-approve}. Emits an {Approval} event indicating the updated allowance. Requirements: - `spender` cannot be the zero address."
      },
      "name()": {
        "details": "Returns the name of the token."
      },
      "registerEmergencyAddress(address)": {
        "details": "Register an emergency address (backup address) for the msg.sender.",
        "params": {
          "emergencyAddress": "The emergency address to be set Emits a {RegisterEmergencyAddress} event. Requirements: - msg.sender should not be blacklisted - emergencyAddress should not be blacklisted"
        }
      },
      "symbol()": {
        "details": "Returns the symbol of the token, usually a shorter version of the name."
      },
      "totalSupply()": {
        "details": "See {IERC20-totalSupply}."
      },
      "transfer(address,uint256)": {
        "details": "Transfer to `recipient` an `amount` of tokens.",
        "params": {
          "amount": "The amount of tokens to send  OBS: If the recipient is blacklisted, transfer amount to it's emergency address. Requirements: - msg.sender should not be blacklisted",
          "recipient": "The token recipient address, will be set to emergency address if it's blacklisted"
        }
      },
      "transferFrom(address,address,uint256)": {
        "details": "Transfer from `sender` to `recipient` an `amount` of tokens.",
        "params": {
          "amount": "The amount of tokens to send  OBS: If the recipient is blacklisted, transfer amount to it's emergency address. Requirements: - `sender` should not be blacklisted - Allowance should be greater than `amount`",
          "recipient": "The token recipient address, will be set to emergency address if it's blacklisted",
          "sender": "The token sender address"
        }
      }
    },
    "stateVariables": {
      "DOMAIN_TYPEHASH": {
        "details": "Domain hash"
      },
      "EMERGENCY_WITHDRAW_TYPEHASH": {
        "details": "Emergency withdraw typehash"
      },
      "emergency": {
        "details": "Mapping between addresses and it's emergency ones"
      }
    },
    "version": 1
  },
  "userdoc": {
    "kind": "user",
    "methods": {},
    "version": 1
  }
}