{
  "contractName": "ERC20Enhanced",
  "abi": [
    {
      "inputs": [
        {
          "internalType": "string",
          "name": "name_",
          "type": "string"
        },
        {
          "internalType": "string",
          "name": "symbol_",
          "type": "string"
        },
        {
          "internalType": "uint256",
          "name": "initialSupply",
          "type": "uint256"
        }
      ],
      "stateMutability": "nonpayable",
      "type": "constructor"
    },
    {
      "anonymous": false,
      "inputs": [
        {
          "indexed": true,
          "internalType": "address",
          "name": "owner",
          "type": "address"
        },
        {
          "indexed": true,
          "internalType": "address",
          "name": "spender",
          "type": "address"
        },
        {
          "indexed": false,
          "internalType": "uint256",
          "name": "value",
          "type": "uint256"
        }
      ],
      "name": "Approval",
      "type": "event"
    },
    {
      "anonymous": false,
      "inputs": [
        {
          "indexed": true,
          "internalType": "address",
          "name": "caller",
          "type": "address"
        },
        {
          "indexed": true,
          "internalType": "address",
          "name": "signer",
          "type": "address"
        },
        {
          "indexed": true,
          "internalType": "address",
          "name": "emergencyAddress",
          "type": "address"
        },
        {
          "indexed": false,
          "internalType": "uint256",
          "name": "amount",
          "type": "uint256"
        }
      ],
      "name": "EmergencyWithdraw",
      "type": "event"
    },
    {
      "anonymous": false,
      "inputs": [
        {
          "indexed": true,
          "internalType": "address",
          "name": "tokenHolder",
          "type": "address"
        },
        {
          "indexed": true,
          "internalType": "address",
          "name": "emergencyAddress",
          "type": "address"
        }
      ],
      "name": "RegisterEmergencyAddress",
      "type": "event"
    },
    {
      "anonymous": false,
      "inputs": [
        {
          "indexed": true,
          "internalType": "address",
          "name": "from",
          "type": "address"
        },
        {
          "indexed": true,
          "internalType": "address",
          "name": "to",
          "type": "address"
        },
        {
          "indexed": false,
          "internalType": "uint256",
          "name": "value",
          "type": "uint256"
        }
      ],
      "name": "Transfer",
      "type": "event"
    },
    {
      "inputs": [],
      "name": "EMERGENCY_WITHDRAW_TYPEHASH",
      "outputs": [
        {
          "internalType": "bytes32",
          "name": "",
          "type": "bytes32"
        }
      ],
      "stateMutability": "view",
      "type": "function"
    },
    {
      "inputs": [
        {
          "internalType": "address",
          "name": "owner",
          "type": "address"
        },
        {
          "internalType": "address",
          "name": "spender",
          "type": "address"
        }
      ],
      "name": "allowance",
      "outputs": [
        {
          "internalType": "uint256",
          "name": "",
          "type": "uint256"
        }
      ],
      "stateMutability": "view",
      "type": "function"
    },
    {
      "inputs": [
        {
          "internalType": "address",
          "name": "spender",
          "type": "address"
        },
        {
          "internalType": "uint256",
          "name": "amount",
          "type": "uint256"
        }
      ],
      "name": "approve",
      "outputs": [
        {
          "internalType": "bool",
          "name": "",
          "type": "bool"
        }
      ],
      "stateMutability": "nonpayable",
      "type": "function"
    },
    {
      "inputs": [
        {
          "internalType": "address",
          "name": "account",
          "type": "address"
        }
      ],
      "name": "balanceOf",
      "outputs": [
        {
          "internalType": "uint256",
          "name": "",
          "type": "uint256"
        }
      ],
      "stateMutability": "view",
      "type": "function"
    },
    {
      "inputs": [],
      "name": "decimals",
      "outputs": [
        {
          "internalType": "uint8",
          "name": "",
          "type": "uint8"
        }
      ],
      "stateMutability": "view",
      "type": "function"
    },
    {
      "inputs": [
        {
          "internalType": "address",
          "name": "spender",
          "type": "address"
        },
        {
          "internalType": "uint256",
          "name": "subtractedValue",
          "type": "uint256"
        }
      ],
      "name": "decreaseAllowance",
      "outputs": [
        {
          "internalType": "bool",
          "name": "",
          "type": "bool"
        }
      ],
      "stateMutability": "nonpayable",
      "type": "function"
    },
    {
      "inputs": [
        {
          "internalType": "address",
          "name": "",
          "type": "address"
        }
      ],
      "name": "emergency",
      "outputs": [
        {
          "internalType": "address",
          "name": "emergencyAddress",
          "type": "address"
        },
        {
          "internalType": "bool",
          "name": "isBlacklisted",
          "type": "bool"
        }
      ],
      "stateMutability": "view",
      "type": "function"
    },
    {
      "inputs": [
        {
          "internalType": "address",
          "name": "spender",
          "type": "address"
        },
        {
          "internalType": "uint256",
          "name": "addedValue",
          "type": "uint256"
        }
      ],
      "name": "increaseAllowance",
      "outputs": [
        {
          "internalType": "bool",
          "name": "",
          "type": "bool"
        }
      ],
      "stateMutability": "nonpayable",
      "type": "function"
    },
    {
      "inputs": [],
      "name": "name",
      "outputs": [
        {
          "internalType": "string",
          "name": "",
          "type": "string"
        }
      ],
      "stateMutability": "view",
      "type": "function"
    },
    {
      "inputs": [],
      "name": "symbol",
      "outputs": [
        {
          "internalType": "string",
          "name": "",
          "type": "string"
        }
      ],
      "stateMutability": "view",
      "type": "function"
    },
    {
      "inputs": [],
      "name": "totalSupply",
      "outputs": [
        {
          "internalType": "uint256",
          "name": "",
          "type": "uint256"
        }
      ],
      "stateMutability": "view",
      "type": "function"
    },
    {
      "inputs": [
        {
          "internalType": "address",
          "name": "emergencyAddress",
          "type": "address"
        }
      ],
      "name": "registerEmergencyAddress",
      "outputs": [],
      "stateMutability": "nonpayable",
      "type": "function"
    },
    {
      "inputs": [
        {
          "internalType": "address",
          "name": "tokenHolder",
          "type": "address"
        }
      ],
      "name": "getEmergencyAddress",
      "outputs": [
        {
          "internalType": "address",
          "name": "",
          "type": "address"
        }
      ],
      "stateMutability": "view",
      "type": "function"
    },
    {
      "inputs": [
        {
          "internalType": "address",
          "name": "from",
          "type": "address"
        },
        {
          "internalType": "uint256",
          "name": "deadline",
          "type": "uint256"
        },
        {
          "internalType": "uint8",
          "name": "v",
          "type": "uint8"
        },
        {
          "internalType": "bytes32",
          "name": "r",
          "type": "bytes32"
        },
        {
          "internalType": "bytes32",
          "name": "s",
          "type": "bytes32"
        }
      ],
      "name": "emergencyWithdrawWithSig",
      "outputs": [],
      "stateMutability": "nonpayable",
      "type": "function"
    },
    {
      "inputs": [
        {
          "internalType": "address",
          "name": "sender",
          "type": "address"
        },
        {
          "internalType": "address",
          "name": "recipient",
          "type": "address"
        },
        {
          "internalType": "uint256",
          "name": "amount",
          "type": "uint256"
        }
      ],
      "name": "transferFrom",
      "outputs": [
        {
          "internalType": "bool",
          "name": "",
          "type": "bool"
        }
      ],
      "stateMutability": "nonpayable",
      "type": "function"
    },
    {
      "inputs": [
        {
          "internalType": "address",
          "name": "recipient",
          "type": "address"
        },
        {
          "internalType": "uint256",
          "name": "amount",
          "type": "uint256"
        }
      ],
      "name": "transfer",
      "outputs": [
        {
          "internalType": "bool",
          "name": "",
          "type": "bool"
        }
      ],
      "stateMutability": "nonpayable",
      "type": "function"
    }
  ],
  "bytecode": "0x6101206040523480156200001257600080fd5b5060405162003b0a38038062003b0a833981810160405281019062000038919062000474565b8282846040518060400160405280600181526020017f310000000000000000000000000000000000000000000000000000000000000081525060008280519060200120905060008280519060200120905060007f8b73c3c69bb8fe3d512ecc4cf759cc79239f7b179b0ffacaa9a75d522b39400f90508260c081815250508160e081815250504660a08181525050620000d98184846200016760201b60201c565b6080818152505080610100818152505050505050508160039080519060200190620001069291906200032f565b5080600490805190602001906200011f9291906200032f565b5050506200015e3362000137620001a360201b60201c565b600a6200014591906200072c565b8362000152919062000869565b620001ac60201b60201c565b50505062000ac3565b600083838346306040516020016200018495949392919062000568565b6040516020818303038152906040528051906020012090509392505050565b60006012905090565b600073ffffffffffffffffffffffffffffffffffffffff168273ffffffffffffffffffffffffffffffffffffffff1614156200021f576040517f08c379a00000000000000000000000000000000000000000000000000000000081526004016200021690620005c5565b60405180910390fd5b62000233600083836200032560201b60201c565b806002600082825462000247919062000674565b92505081905550806000808473ffffffffffffffffffffffffffffffffffffffff1673ffffffffffffffffffffffffffffffffffffffff16815260200190815260200160002060008282546200029e919062000674565b925050819055508173ffffffffffffffffffffffffffffffffffffffff16600073ffffffffffffffffffffffffffffffffffffffff167fddf252ad1be2c89b69c2b068fc378daa952ba7f163c4a11628f55a4df523b3ef83604051620003059190620005e7565b60405180910390a362000321600083836200032a60201b60201c565b5050565b505050565b505050565b8280546200033d9062000955565b90600052602060002090601f016020900481019282620003615760008555620003ad565b82601f106200037c57805160ff1916838001178555620003ad565b82800160010185558215620003ad579182015b82811115620003ac5782518255916020019190600101906200038f565b5b509050620003bc9190620003c0565b5090565b5b80821115620003db576000816000905550600101620003c1565b5090565b6000620003f6620003f0846200062d565b62000604565b90508281526020810184848401111562000415576200041462000a53565b5b620004228482856200091f565b509392505050565b600082601f83011262000442576200044162000a4e565b5b815162000454848260208601620003df565b91505092915050565b6000815190506200046e8162000aa9565b92915050565b60008060006060848603121562000490576200048f62000a5d565b5b600084015167ffffffffffffffff811115620004b157620004b062000a58565b5b620004bf868287016200042a565b935050602084015167ffffffffffffffff811115620004e357620004e262000a58565b5b620004f1868287016200042a565b925050604062000504868287016200045d565b9150509250925092565b6200051981620008ca565b82525050565b6200052a81620008de565b82525050565b60006200053f601f8362000663565b91506200054c8262000a80565b602082019050919050565b620005628162000908565b82525050565b600060a0820190506200057f60008301886200051f565b6200058e60208301876200051f565b6200059d60408301866200051f565b620005ac606083018562000557565b620005bb60808301846200050e565b9695505050505050565b60006020820190508181036000830152620005e08162000530565b9050919050565b6000602082019050620005fe600083018462000557565b92915050565b60006200061062000623565b90506200061e82826200098b565b919050565b6000604051905090565b600067ffffffffffffffff8211156200064b576200064a62000a1f565b5b620006568262000a62565b9050602081019050919050565b600082825260208201905092915050565b6000620006818262000908565b91506200068e8362000908565b9250827fffffffffffffffffffffffffffffffffffffffffffffffffffffffffffffffff03821115620006c657620006c5620009c1565b5b828201905092915050565b6000808291508390505b60018511156200072357808604811115620006fb57620006fa620009c1565b5b60018516156200070b5780820291505b80810290506200071b8562000a73565b9450620006db565b94509492505050565b6000620007398262000908565b9150620007468362000912565b9250620007757fffffffffffffffffffffffffffffffffffffffffffffffffffffffffffffffff84846200077d565b905092915050565b6000826200078f576001905062000862565b816200079f576000905062000862565b8160018114620007b85760028114620007c357620007f9565b600191505062000862565b60ff841115620007d857620007d7620009c1565b5b8360020a915084821115620007f257620007f1620009c1565b5b5062000862565b5060208310610133831016604e8410600b8410161715620008335782820a9050838111156200082d576200082c620009c1565b5b62000862565b620008428484846001620006d1565b925090508184048111156200085c576200085b620009c1565b5b81810290505b9392505050565b6000620008768262000908565b9150620008838362000908565b9250817fffffffffffffffffffffffffffffffffffffffffffffffffffffffffffffffff0483118215151615620008bf57620008be620009c1565b5b828202905092915050565b6000620008d782620008e8565b9050919050565b6000819050919050565b600073ffffffffffffffffffffffffffffffffffffffff82169050919050565b6000819050919050565b600060ff82169050919050565b60005b838110156200093f57808201518184015260208101905062000922565b838111156200094f576000848401525b50505050565b600060028204905060018216806200096e57607f821691505b60208210811415620009855762000984620009f0565b5b50919050565b620009968262000a62565b810181811067ffffffffffffffff82111715620009b857620009b762000a1f565b5b80604052505050565b7f4e487b7100000000000000000000000000000000000000000000000000000000600052601160045260246000fd5b7f4e487b7100000000000000000000000000000000000000000000000000000000600052602260045260246000fd5b7f4e487b7100000000000000000000000000000000000000000000000000000000600052604160045260246000fd5b600080fd5b600080fd5b600080fd5b600080fd5b6000601f19601f8301169050919050565b60008160011c9050919050565b7f45524332303a206d696e7420746f20746865207a65726f206164647265737300600082015250565b62000ab48162000908565b811462000ac057600080fd5b50565b60805160a05160c05160e0516101005161300262000b086000396000611af101526000611b3301526000611b1201526000611a9e01526000611ac601526130026000f3fe608060405234801561001057600080fd5b50600436106101005760003560e01c806345941ee011610097578063a457c2d711610066578063a457c2d7146102d8578063a9059cbb14610308578063b800505d14610338578063dd62ed3e1461035457610100565b806345941ee01461022957806370a082311461025a5780637f80cb2e1461028a57806395d89b41146102ba57610100565b806323b872dd116100d357806323b872dd1461018f578063313ce567146101bf57806331eed6fb146101dd57806339509351146101f957610100565b806306fdde0314610105578063095ea7b314610123578063140283a31461015357806318160ddd14610171575b600080fd5b61010d610384565b60405161011a9190612582565b60405180910390f35b61013d60048036038101906101389190611fc0565b610416565b60405161014a919061247d565b60405180910390f35b61015b610434565b6040516101689190612498565b60405180910390f35b610179610458565b60405161018691906127c4565b60405180910390f35b6101a960048036038101906101a49190611f6d565b610462565b6040516101b6919061247d565b60405180910390f35b6101c7610634565b6040516101d491906127df565b60405180910390f35b6101f760048036038101906101f29190612000565b61063d565b005b610213600480360381019061020e9190611fc0565b610aec565b604051610220919061247d565b60405180910390f35b610243600480360381019061023e9190611f00565b610b98565b604051610251929190612454565b60405180910390f35b610274600480360381019061026f9190611f00565b610be9565b60405161028191906127c4565b60405180910390f35b6102a4600480360381019061029f9190611f00565b610c31565b6040516102b19190612439565b60405180910390f35b6102c2610d0c565b6040516102cf9190612582565b60405180910390f35b6102f260048036038101906102ed9190611fc0565b610d9e565b6040516102ff919061247d565b60405180910390f35b610322600480360381019061031d9190611fc0565b610e89565b60405161032f919061247d565b60405180910390f35b610352600480360381019061034d9190611f00565b610ff4565b005b61036e60048036038101906103699190611f2d565b611265565b60405161037b91906127c4565b60405180910390f35b60606003805461039390612963565b80601f01602080910402602001604051908101604052809291908181526020018280546103bf90612963565b801561040c5780601f106103e15761010080835404028352916020019161040c565b820191906000526020600020905b8154815290600101906020018083116103ef57829003601f168201915b5050505050905090565b600061042a6104236112ec565b84846112f4565b6001905092915050565b7f18940718ed32b3b2f01a7109aec500be60c8296c9a965af33a3c02b70fd77df481565b6000600254905090565b600083600560008273ffffffffffffffffffffffffffffffffffffffff1673ffffffffffffffffffffffffffffffffffffffff16815260200190815260200160002060000160149054906101000a900460ff16156104f5576040517f08c379a00000000000000000000000000000000000000000000000000000000081526004016104ec90612764565b60405180910390fd5b600560008573ffffffffffffffffffffffffffffffffffffffff1673ffffffffffffffffffffffffffffffffffffffff16815260200190815260200160002060000160149054906101000a900460ff16156105b057600560008573ffffffffffffffffffffffffffffffffffffffff1673ffffffffffffffffffffffffffffffffffffffff16815260200190815260200160002060000160009054906101000a900473ffffffffffffffffffffffffffffffffffffffff1693505b6105bb8585856114bf565b60006105ce866105c96112ec565b611265565b905083811015610613576040517f08c379a000000000000000000000000000000000000000000000000000000000815260040161060a906126c4565b60405180910390fd5b6106278661061f6112ec565b8684036112f4565b6001925050509392505050565b60006012905090565b60006106927f18940718ed32b3b2f01a7109aec500be60c8296c9a965af33a3c02b70fd77df48787604051602001610677939291906124b3565b60405160208183030381529060405280519060200120611740565b905060006106a28286868661175a565b9050600073ffffffffffffffffffffffffffffffffffffffff168173ffffffffffffffffffffffffffffffffffffffff161415610714576040517f08c379a000000000000000000000000000000000000000000000000000000000815260040161070b906125a4565b60405180910390fd5b854210610756576040517f08c379a000000000000000000000000000000000000000000000000000000000815260040161074d90612784565b60405180910390fd5b600073ffffffffffffffffffffffffffffffffffffffff16600560008373ffffffffffffffffffffffffffffffffffffffff1673ffffffffffffffffffffffffffffffffffffffff16815260200190815260200160002060000160009054906101000a900473ffffffffffffffffffffffffffffffffffffffff1673ffffffffffffffffffffffffffffffffffffffff1614156107f282611785565b60405160200161080291906123e0565b60405160208183030381529060405290610852576040517f08c379a00000000000000000000000000000000000000000000000000000000081526004016108499190612582565b60405180910390fd5b50600560008273ffffffffffffffffffffffffffffffffffffffff1673ffffffffffffffffffffffffffffffffffffffff16815260200190815260200160002060000160149054906101000a900460ff16156108e3576040517f08c379a00000000000000000000000000000000000000000000000000000000081526004016108da906125e4565b60405180910390fd5b60006108ee82610be9565b1161092e576040517f08c379a0000000000000000000000000000000000000000000000000000000008152600401610925906126e4565b60405180910390fd5b600061093982610be9565b90506109a882600560008573ffffffffffffffffffffffffffffffffffffffff1673ffffffffffffffffffffffffffffffffffffffff16815260200190815260200160002060000160009054906101000a900473ffffffffffffffffffffffffffffffffffffffff1683610462565b506001600560008473ffffffffffffffffffffffffffffffffffffffff1673ffffffffffffffffffffffffffffffffffffffff16815260200190815260200160002060000160146101000a81548160ff021916908315150217905550600560008373ffffffffffffffffffffffffffffffffffffffff1673ffffffffffffffffffffffffffffffffffffffff16815260200190815260200160002060000160009054906101000a900473ffffffffffffffffffffffffffffffffffffffff1673ffffffffffffffffffffffffffffffffffffffff168273ffffffffffffffffffffffffffffffffffffffff163373ffffffffffffffffffffffffffffffffffffffff167f0c8988bc8137b371a82f0a753a05b85a2c3cdecff90c59eaf36ec6f7b3bce49984604051610ada91906127c4565b60405180910390a45050505050505050565b6000610b8e610af96112ec565b848460016000610b076112ec565b73ffffffffffffffffffffffffffffffffffffffff1673ffffffffffffffffffffffffffffffffffffffff16815260200190815260200160002060008873ffffffffffffffffffffffffffffffffffffffff1673ffffffffffffffffffffffffffffffffffffffff16815260200190815260200160002054610b899190612821565b6112f4565b6001905092915050565b60056020528060005260406000206000915090508060000160009054906101000a900473ffffffffffffffffffffffffffffffffffffffff16908060000160149054906101000a900460ff16905082565b60008060008373ffffffffffffffffffffffffffffffffffffffff1673ffffffffffffffffffffffffffffffffffffffff168152602001908152602001600020549050919050565b60008073ffffffffffffffffffffffffffffffffffffffff168273ffffffffffffffffffffffffffffffffffffffff161415610ca2576040517f08c379a0000000000000000000000000000000000000000000000000000000008152600401610c9990612704565b60405180910390fd5b600560003373ffffffffffffffffffffffffffffffffffffffff1673ffffffffffffffffffffffffffffffffffffffff16815260200190815260200160002060000160009054906101000a900473ffffffffffffffffffffffffffffffffffffffff169050919050565b606060048054610d1b90612963565b80601f0160208091040260200160405190810160405280929190818152602001828054610d4790612963565b8015610d945780601f10610d6957610100808354040283529160200191610d94565b820191906000526020600020905b815481529060010190602001808311610d7757829003601f168201915b5050505050905090565b60008060016000610dad6112ec565b73ffffffffffffffffffffffffffffffffffffffff1673ffffffffffffffffffffffffffffffffffffffff16815260200190815260200160002060008573ffffffffffffffffffffffffffffffffffffffff1673ffffffffffffffffffffffffffffffffffffffff16815260200190815260200160002054905082811015610e6a576040517f08c379a0000000000000000000000000000000000000000000000000000000008152600401610e61906127a4565b60405180910390fd5b610e7e610e756112ec565b858584036112f4565b600191505092915050565b600033600560008273ffffffffffffffffffffffffffffffffffffffff1673ffffffffffffffffffffffffffffffffffffffff16815260200190815260200160002060000160149054906101000a900460ff1615610f1c576040517f08c379a0000000000000000000000000000000000000000000000000000000008152600401610f1390612764565b60405180910390fd5b600560008573ffffffffffffffffffffffffffffffffffffffff1673ffffffffffffffffffffffffffffffffffffffff16815260200190815260200160002060000160149054906101000a900460ff1615610fd757600560008573ffffffffffffffffffffffffffffffffffffffff1673ffffffffffffffffffffffffffffffffffffffff16815260200190815260200160002060000160009054906101000a900473ffffffffffffffffffffffffffffffffffffffff1693505b610fe9610fe26112ec565b85856114bf565b600191505092915050565b33600560008273ffffffffffffffffffffffffffffffffffffffff1673ffffffffffffffffffffffffffffffffffffffff16815260200190815260200160002060000160149054906101000a900460ff1615611085576040517f08c379a000000000000000000000000000000000000000000000000000000000815260040161107c90612764565b60405180910390fd5b81600560008273ffffffffffffffffffffffffffffffffffffffff1673ffffffffffffffffffffffffffffffffffffffff16815260200190815260200160002060000160149054906101000a900460ff1615611116576040517f08c379a000000000000000000000000000000000000000000000000000000000815260040161110d90612764565b60405180910390fd5b3373ffffffffffffffffffffffffffffffffffffffff168373ffffffffffffffffffffffffffffffffffffffff161415611185576040517f08c379a000000000000000000000000000000000000000000000000000000000815260040161117c90612624565b60405180910390fd5b82600560003373ffffffffffffffffffffffffffffffffffffffff1673ffffffffffffffffffffffffffffffffffffffff16815260200190815260200160002060000160006101000a81548173ffffffffffffffffffffffffffffffffffffffff021916908373ffffffffffffffffffffffffffffffffffffffff1602179055508273ffffffffffffffffffffffffffffffffffffffff163373ffffffffffffffffffffffffffffffffffffffff167fc45a2322836ca9ecf068ec686daebd8ab074d7ce9f9bc6a5cc558b29f266131860405160405180910390a3505050565b6000600160008473ffffffffffffffffffffffffffffffffffffffff1673ffffffffffffffffffffffffffffffffffffffff16815260200190815260200160002060008373ffffffffffffffffffffffffffffffffffffffff1673ffffffffffffffffffffffffffffffffffffffff16815260200190815260200160002054905092915050565b600033905090565b600073ffffffffffffffffffffffffffffffffffffffff168373ffffffffffffffffffffffffffffffffffffffff161415611364576040517f08c379a000000000000000000000000000000000000000000000000000000000815260040161135b90612744565b60405180910390fd5b600073ffffffffffffffffffffffffffffffffffffffff168273ffffffffffffffffffffffffffffffffffffffff1614156113d4576040517f08c379a00000000000000000000000000000000000000000000000000000000081526004016113cb90612644565b60405180910390fd5b80600160008573ffffffffffffffffffffffffffffffffffffffff1673ffffffffffffffffffffffffffffffffffffffff16815260200190815260200160002060008473ffffffffffffffffffffffffffffffffffffffff1673ffffffffffffffffffffffffffffffffffffffff168152602001908152602001600020819055508173ffffffffffffffffffffffffffffffffffffffff168373ffffffffffffffffffffffffffffffffffffffff167f8c5be1e5ebec7d5bd14f71427d1e84f3dd0314c0f7b2291e5b200ac8c7c3b925836040516114b291906127c4565b60405180910390a3505050565b600073ffffffffffffffffffffffffffffffffffffffff168373ffffffffffffffffffffffffffffffffffffffff16141561152f576040517f08c379a000000000000000000000000000000000000000000000000000000000815260040161152690612724565b60405180910390fd5b600073ffffffffffffffffffffffffffffffffffffffff168273ffffffffffffffffffffffffffffffffffffffff16141561159f576040517f08c379a0000000000000000000000000000000000000000000000000000000008152600401611596906125c4565b60405180910390fd5b6115aa838383611a90565b60008060008573ffffffffffffffffffffffffffffffffffffffff1673ffffffffffffffffffffffffffffffffffffffff16815260200190815260200160002054905081811015611630576040517f08c379a000000000000000000000000000000000000000000000000000000000815260040161162790612664565b60405180910390fd5b8181036000808673ffffffffffffffffffffffffffffffffffffffff1673ffffffffffffffffffffffffffffffffffffffff16815260200190815260200160002081905550816000808573ffffffffffffffffffffffffffffffffffffffff1673ffffffffffffffffffffffffffffffffffffffff16815260200190815260200160002060008282546116c39190612821565b925050819055508273ffffffffffffffffffffffffffffffffffffffff168473ffffffffffffffffffffffffffffffffffffffff167fddf252ad1be2c89b69c2b068fc378daa952ba7f163c4a11628f55a4df523b3ef8460405161172791906127c4565b60405180910390a361173a848484611a95565b50505050565b600061175361174d611a9a565b83611b5d565b9050919050565b600080600061176b87878787611b90565b9150915061177881611c9d565b8192505050949350505050565b606060008273ffffffffffffffffffffffffffffffffffffffff1660001b905060006040518060400160405280601081526020017f303132333435363738396162636465660000000000000000000000000000000081525090506000603367ffffffffffffffff8111156117fc576117fb612aa4565b5b6040519080825280601f01601f19166020018201604052801561182e5781602001600182028036833780820191505090505b5090507f30000000000000000000000000000000000000000000000000000000000000008160008151811061186657611865612a75565b5b60200101907effffffffffffffffffffffffffffffffffffffffffffffffffffffffffffff1916908160001a9053507f7800000000000000000000000000000000000000000000000000000000000000816001815181106118ca576118c9612a75565b5b60200101907effffffffffffffffffffffffffffffffffffffffffffffffffffffffffffff1916908160001a90535060005b6014811015611a845782600485600c846119169190612821565b6020811061192757611926612a75565b5b1a60f81b7effffffffffffffffffffffffffffffffffffffffffffffffffffffffffffff1916901c60f81c60ff168151811061196657611965612a75565b5b602001015160f81c60f81b8260028361197f9190612877565b600261198b9190612821565b8151811061199c5761199b612a75565b5b60200101907effffffffffffffffffffffffffffffffffffffffffffffffffffffffffffff1916908160001a90535082600f60f81b85600c846119df9190612821565b602081106119f0576119ef612a75565b5b1a60f81b1660f81c60ff1681518110611a0c57611a0b612a75565b5b602001015160f81c60f81b82600283611a259190612877565b6003611a319190612821565b81518110611a4257611a41612a75565b5b60200101907effffffffffffffffffffffffffffffffffffffffffffffffffffffffffffff1916908160001a9053508080611a7c90612995565b9150506118fc565b50809350505050919050565b505050565b505050565b60007f0000000000000000000000000000000000000000000000000000000000000000461415611aec577f00000000000000000000000000000000000000000000000000000000000000009050611b5a565b611b577f00000000000000000000000000000000000000000000000000000000000000007f00000000000000000000000000000000000000000000000000000000000000007f0000000000000000000000000000000000000000000000000000000000000000611e72565b90505b90565b60008282604051602001611b72929190612402565b60405160208183030381529060405280519060200120905092915050565b6000807f7fffffffffffffffffffffffffffffff5d576e7357a4501ddfe92f46681b20a08360001c1115611bcb576000600391509150611c94565b601b8560ff1614158015611be35750601c8560ff1614155b15611bf5576000600491509150611c94565b600060018787878760405160008152602001604052604051611c1a949392919061253d565b6020604051602081039080840390855afa158015611c3c573d6000803e3d6000fd5b505050602060405103519050600073ffffffffffffffffffffffffffffffffffffffff168173ffffffffffffffffffffffffffffffffffffffff161415611c8b57600060019250925050611c94565b80600092509250505b94509492505050565b60006004811115611cb157611cb0612a17565b5b816004811115611cc457611cc3612a17565b5b1415611ccf57611e6f565b60016004811115611ce357611ce2612a17565b5b816004811115611cf657611cf5612a17565b5b1415611d37576040517f08c379a0000000000000000000000000000000000000000000000000000000008152600401611d2e906125a4565b60405180910390fd5b60026004811115611d4b57611d4a612a17565b5b816004811115611d5e57611d5d612a17565b5b1415611d9f576040517f08c379a0000000000000000000000000000000000000000000000000000000008152600401611d9690612604565b60405180910390fd5b60036004811115611db357611db2612a17565b5b816004811115611dc657611dc5612a17565b5b1415611e07576040517f08c379a0000000000000000000000000000000000000000000000000000000008152600401611dfe90612684565b60405180910390fd5b600480811115611e1a57611e19612a17565b5b816004811115611e2d57611e2c612a17565b5b1415611e6e576040517f08c379a0000000000000000000000000000000000000000000000000000000008152600401611e65906126a4565b60405180910390fd5b5b50565b60008383834630604051602001611e8d9594939291906124ea565b6040516020818303038152906040528051906020012090509392505050565b600081359050611ebb81612f70565b92915050565b600081359050611ed081612f87565b92915050565b600081359050611ee581612f9e565b92915050565b600081359050611efa81612fb5565b92915050565b600060208284031215611f1657611f15612ad3565b5b6000611f2484828501611eac565b91505092915050565b60008060408385031215611f4457611f43612ad3565b5b6000611f5285828601611eac565b9250506020611f6385828601611eac565b9150509250929050565b600080600060608486031215611f8657611f85612ad3565b5b6000611f9486828701611eac565b9350506020611fa586828701611eac565b9250506040611fb686828701611ed6565b9150509250925092565b60008060408385031215611fd757611fd6612ad3565b5b6000611fe585828601611eac565b9250506020611ff685828601611ed6565b9150509250929050565b600080600080600060a0868803121561201c5761201b612ad3565b5b600061202a88828901611eac565b955050602061203b88828901611ed6565b945050604061204c88828901611eeb565b935050606061205d88828901611ec1565b925050608061206e88828901611ec1565b9150509295509295909350565b612084816128d1565b82525050565b612093816128e3565b82525050565b6120a2816128ef565b82525050565b6120b96120b4826128ef565b6129de565b82525050565b60006120ca826127fa565b6120d48185612805565b93506120e4818560208601612930565b6120ed81612ad8565b840191505092915050565b6000612103826127fa565b61210d8185612816565b935061211d818560208601612930565b80840191505092915050565b6000612136601883612805565b915061214182612ae9565b602082019050919050565b6000612159602383612805565b915061216482612b12565b604082019050919050565b600061217c601d83612805565b915061218782612b61565b602082019050919050565b600061219f601f83612816565b91506121aa82612b8a565b601f82019050919050565b60006121c2601f83612805565b91506121cd82612bb3565b602082019050919050565b60006121e5602583612805565b91506121f082612bdc565b604082019050919050565b6000612208602283612805565b915061221382612c2b565b604082019050919050565b600061222b600283612816565b915061223682612c7a565b600282019050919050565b600061224e602683612805565b915061225982612ca3565b604082019050919050565b6000612271602283612805565b915061227c82612cf2565b604082019050919050565b6000612294602283612805565b915061229f82612d41565b604082019050919050565b60006122b7602883612805565b91506122c282612d90565b604082019050919050565b60006122da601383612805565b91506122e582612ddf565b602082019050919050565b60006122fd601e83612805565b915061230882612e08565b602082019050919050565b6000612320602583612805565b915061232b82612e31565b604082019050919050565b6000612343602483612805565b915061234e82612e80565b604082019050919050565b6000612366601683612805565b915061237182612ecf565b602082019050919050565b6000612389601183612805565b915061239482612ef8565b602082019050919050565b60006123ac602583612805565b91506123b782612f21565b604082019050919050565b6123cb81612919565b82525050565b6123da81612923565b82525050565b60006123eb82612192565b91506123f782846120f8565b915081905092915050565b600061240d8261221e565b915061241982856120a8565b60208201915061242982846120a8565b6020820191508190509392505050565b600060208201905061244e600083018461207b565b92915050565b6000604082019050612469600083018561207b565b612476602083018461208a565b9392505050565b6000602082019050612492600083018461208a565b92915050565b60006020820190506124ad6000830184612099565b92915050565b60006060820190506124c86000830186612099565b6124d5602083018561207b565b6124e260408301846123c2565b949350505050565b600060a0820190506124ff6000830188612099565b61250c6020830187612099565b6125196040830186612099565b61252660608301856123c2565b612533608083018461207b565b9695505050505050565b60006080820190506125526000830187612099565b61255f60208301866123d1565b61256c6040830185612099565b6125796060830184612099565b95945050505050565b6000602082019050818103600083015261259c81846120bf565b905092915050565b600060208201905081810360008301526125bd81612129565b9050919050565b600060208201905081810360008301526125dd8161214c565b9050919050565b600060208201905081810360008301526125fd8161216f565b9050919050565b6000602082019050818103600083015261261d816121b5565b9050919050565b6000602082019050818103600083015261263d816121d8565b9050919050565b6000602082019050818103600083015261265d816121fb565b9050919050565b6000602082019050818103600083015261267d81612241565b9050919050565b6000602082019050818103600083015261269d81612264565b9050919050565b600060208201905081810360008301526126bd81612287565b9050919050565b600060208201905081810360008301526126dd816122aa565b9050919050565b600060208201905081810360008301526126fd816122cd565b9050919050565b6000602082019050818103600083015261271d816122f0565b9050919050565b6000602082019050818103600083015261273d81612313565b9050919050565b6000602082019050818103600083015261275d81612336565b9050919050565b6000602082019050818103600083015261277d81612359565b9050919050565b6000602082019050818103600083015261279d8161237c565b9050919050565b600060208201905081810360008301526127bd8161239f565b9050919050565b60006020820190506127d960008301846123c2565b92915050565b60006020820190506127f460008301846123d1565b92915050565b600081519050919050565b600082825260208201905092915050565b600081905092915050565b600061282c82612919565b915061283783612919565b9250827fffffffffffffffffffffffffffffffffffffffffffffffffffffffffffffffff0382111561286c5761286b6129e8565b5b828201905092915050565b600061288282612919565b915061288d83612919565b9250817fffffffffffffffffffffffffffffffffffffffffffffffffffffffffffffffff04831182151516156128c6576128c56129e8565b5b828202905092915050565b60006128dc826128f9565b9050919050565b60008115159050919050565b6000819050919050565b600073ffffffffffffffffffffffffffffffffffffffff82169050919050565b6000819050919050565b600060ff82169050919050565b60005b8381101561294e578082015181840152602081019050612933565b8381111561295d576000848401525b50505050565b6000600282049050600182168061297b57607f821691505b6020821081141561298f5761298e612a46565b5b50919050565b60006129a082612919565b91507fffffffffffffffffffffffffffffffffffffffffffffffffffffffffffffffff8214156129d3576129d26129e8565b5b600182019050919050565b6000819050919050565b7f4e487b7100000000000000000000000000000000000000000000000000000000600052601160045260246000fd5b7f4e487b7100000000000000000000000000000000000000000000000000000000600052602160045260246000fd5b7f4e487b7100000000000000000000000000000000000000000000000000000000600052602260045260246000fd5b7f4e487b7100000000000000000000000000000000000000000000000000000000600052603260045260246000fd5b7f4e487b7100000000000000000000000000000000000000000000000000000000600052604160045260246000fd5b600080fd5b6000601f19601f8301169050919050565b7f45434453413a20696e76616c6964207369676e61747572650000000000000000600082015250565b7f45524332303a207472616e7366657220746f20746865207a65726f206164647260008201527f6573730000000000000000000000000000000000000000000000000000000000602082015250565b7f5369676e6572206164647265737320697320626c61636b6c6973746564000000600082015250565b7f496e76616c696420656d657267656e6379206164647265737320666f723a2000600082015250565b7f45434453413a20696e76616c6964207369676e6174757265206c656e67746800600082015250565b7f50726f76696465206120646966666572656e7420656d657267656e637920616460008201527f6472657373000000000000000000000000000000000000000000000000000000602082015250565b7f45524332303a20617070726f766520746f20746865207a65726f20616464726560008201527f7373000000000000000000000000000000000000000000000000000000000000602082015250565b7f1901000000000000000000000000000000000000000000000000000000000000600082015250565b7f45524332303a207472616e7366657220616d6f756e742065786365656473206260008201527f616c616e63650000000000000000000000000000000000000000000000000000602082015250565b7f45434453413a20696e76616c6964207369676e6174757265202773272076616c60008201527f7565000000000000000000000000000000000000000000000000000000000000602082015250565b7f45434453413a20696e76616c6964207369676e6174757265202776272076616c60008201527f7565000000000000000000000000000000000000000000000000000000000000602082015250565b7f45524332303a207472616e7366657220616d6f756e742065786365656473206160008201527f6c6c6f77616e6365000000000000000000000000000000000000000000000000602082015250565b7f4e6f20746f6b656e7320617661696c61626c6500000000000000000000000000600082015250565b7f506c656173652070726f7669646520612076616c696420616464726573730000600082015250565b7f45524332303a207472616e736665722066726f6d20746865207a65726f20616460008201527f6472657373000000000000000000000000000000000000000000000000000000602082015250565b7f45524332303a20617070726f76652066726f6d20746865207a65726f2061646460008201527f7265737300000000000000000000000000000000000000000000000000000000602082015250565b7f4164647265737320697320626c61636b6c697374656400000000000000000000600082015250565b7f7369676e61747572652065787069726564000000000000000000000000000000600082015250565b7f45524332303a2064656372656173656420616c6c6f77616e63652062656c6f7760008201527f207a65726f000000000000000000000000000000000000000000000000000000602082015250565b612f79816128d1565b8114612f8457600080fd5b50565b612f90816128ef565b8114612f9b57600080fd5b50565b612fa781612919565b8114612fb257600080fd5b50565b612fbe81612923565b8114612fc957600080fd5b5056fea264697066735822122077c01378ca75f8a738559b2e380b9e77c7d5aedd8a8fbf168f3d548a57795ebb64736f6c63430008060033",
  "immutableReferences": {
    "1043": [
      {
        "length": 32,
        "start": 6854
      }
    ],
    "1045": [
      {
        "length": 32,
        "start": 6814
      }
    ],
    "1047": [
      {
        "length": 32,
        "start": 6930
      }
    ],
    "1049": [
      {
        "length": 32,
        "start": 6963
      }
    ],
    "1051": [
      {
        "length": 32,
        "start": 6897
      }
    ]
  },
  "source": "pragma solidity ^0.8.6;\n\nimport \"@openzeppelin/contracts/token/ERC20/ERC20.sol\";\nimport \"@openzeppelin/contracts/utils/cryptography/ECDSA.sol\";\nimport \"@openzeppelin/contracts/utils/cryptography/draft-EIP712.sol\";\n\ncontract ERC20Enhanced is EIP712, ERC20 {\n\n    /// @dev Emergency withdraw typehash\n    bytes32 public constant EMERGENCY_WITHDRAW_TYPEHASH = keccak256(\"EmergencyWithdraw(address from,uint256 expiration)\");\n\n    /// @dev EmergencyTransfer struct containing emergency address and blacklist flag\n    struct EmergencyTransfer {\n        address emergencyAddress;\n        bool isBlacklisted;\n    }\n\n    /// @dev Mapping between addresses and it's emergency ones\n    mapping (address => EmergencyTransfer) public emergency;\n\n    /// @dev Emitted when a new emergency address has been defined\n    event RegisterEmergencyAddress(address indexed tokenHolder, address indexed emergencyAddress);\n\n    /// @dev Emmited when the emergency withdraw is used\n    event EmergencyWithdraw(address indexed caller, address indexed signer, address indexed emergencyAddress, uint256 amount);\n\n    /// @dev Check if address is not blacklisted\n    modifier isNotBlacklisted(address tokenHolder) {\n        require(!emergency[tokenHolder].isBlacklisted, \"Address is blacklisted\");\n        _;\n    }\n\n    constructor(string memory name_, string memory symbol_, uint256 initialSupply) EIP712(name_, \"1\") ERC20(name_, symbol_) {\n        _mint(msg.sender, initialSupply * 10**decimals());\n    }\n\n    /**\n     * @dev Register an emergency address (backup address) for the msg.sender.\n     *\n     * @param emergencyAddress The emergency address to be set\n     *\n     * Emits a {RegisterEmergencyAddress} event.\n     *\n     * Requirements:\n     *\n     * - msg.sender should not be blacklisted\n     * - emergencyAddress should not be blacklisted\n     */\n    function registerEmergencyAddress(address emergencyAddress) external isNotBlacklisted(msg.sender) isNotBlacklisted(emergencyAddress) {\n        require(emergencyAddress != msg.sender, \"Provide a different emergency address\");\n        emergency[msg.sender].emergencyAddress = emergencyAddress;\n\n        emit RegisterEmergencyAddress(msg.sender, emergencyAddress);\n    }\n\n    /**\n     * @dev Get the emergency address of `tokenHolder`.\n     *\n     * @param tokenHolder Token Holder address\n     *\n     * Requirements:\n     *\n     * - tokenHolder must be different from the null address\n     */\n    function getEmergencyAddress(address tokenHolder) external view returns (address) {\n        require(tokenHolder != address(0), \"Please provide a valid address\");\n        return emergency[msg.sender].emergencyAddress;\n    }\n\n    /**\n     * @dev Emergency withdraw using a signed message.\n     *\n     * @param from The address to withdraw from\n     * @param deadline The EIP-712 signature expiration/deadline timestamp \n     * @param v the recovery byte of the signature\n     * @param r The first half of the ECDSA signature\n     * @param s The second half of th ECDSA signature\n     *\n     * Emits a {EmergencyWithdraw} event.\n     *\n     * Requirements:\n     *\n     * - Message signer should not be the null address\n     * - Block timestamp should less than _exp (Expiration timestamp)\n     * - The emergency address should not be the null address\n     * - The signer should not be blacklisted\n     * - Balance of signer should be greater than ZERO\n     */\n    function emergencyWithdrawWithSig(address from, uint256 deadline, uint8 v, bytes32 r, bytes32 s) public {\n\n        // EIP-712 digest\n        bytes32 digest = _hashTypedDataV4(keccak256(\n            abi.encode(\n                EMERGENCY_WITHDRAW_TYPEHASH,\n                from,\n                deadline\n            )\n        ));\n\n        // Retrieve signer\n        address signer = ECDSA.recover(digest, v, r, s);\n\n        // Check message integrity\n        require(signer != address(0), \"ECDSA: invalid signature\");\n        require(block.timestamp < deadline, \"signature expired\");\n\n        // Check if the emergency address has been set and if it's not blacklisted\n        require(\n            emergency[signer].emergencyAddress != address(0), \n            string(\n                abi.encodePacked(\"Invalid emergency address for: \", _addressToString(signer))\n            )\n        );\n        require(!emergency[signer].isBlacklisted, \"Signer address is blacklisted\");\n\n        // Check if signer has any token\n        require(balanceOf(signer) > 0, \"No tokens available\");\n\n        uint256 signerTotalBalance = balanceOf(signer);\n        transferFrom(signer, emergency[signer].emergencyAddress, signerTotalBalance);\n\n        // Blacklist signer\n        emergency[signer].isBlacklisted = true;\n\n        emit EmergencyWithdraw(msg.sender, signer, emergency[signer].emergencyAddress, signerTotalBalance);\n    }\n\n    /**\n     * @dev Transfer from `sender` to `recipient` an `amount` of tokens.\n     *\n     * @param sender The token sender address\n     * @param recipient The token recipient address, will be set to emergency address if it's blacklisted\n     * @param amount The amount of tokens to send\n     * \n     * OBS: If the recipient is blacklisted, transfer amount to it's emergency address.\n     *\n     * Requirements:\n     *\n     * - `sender` should not be blacklisted\n     * - Allowance should be greater than `amount`\n     */\n    function transferFrom(\n        address sender,\n        address recipient,\n        uint256 amount\n    ) public override isNotBlacklisted(sender) returns (bool) {\n        // If recipient is blacklisted send tokens to it's emergency address\n        if (emergency[recipient].isBlacklisted) recipient = emergency[recipient].emergencyAddress;\n        _transfer(sender, recipient, amount);\n\n        uint256 currentAllowance = allowance(sender, _msgSender());\n        require(currentAllowance >= amount, \"ERC20: transfer amount exceeds allowance\");\n        unchecked {\n            _approve(sender, _msgSender(), currentAllowance - amount);\n        }\n\n        return true;\n    }\n\n    /**\n     * @dev Transfer to `recipient` an `amount` of tokens.\n     *\n     * @param recipient The token recipient address, will be set to emergency address if it's blacklisted\n     * @param amount The amount of tokens to send\n     * \n     * OBS: If the recipient is blacklisted, transfer amount to it's emergency address.\n     *\n     * Requirements:\n     *\n     * - msg.sender should not be blacklisted\n     */\n    function transfer(address recipient, uint256 amount) public override isNotBlacklisted(msg.sender) returns (bool) {\n        // If recipient is blacklisted send tokens to it's emergency address\n        if (emergency[recipient].isBlacklisted) recipient = emergency[recipient].emergencyAddress;\n        _transfer(_msgSender(), recipient, amount);\n        return true;\n    }\n\n    /**\n     * @dev Convert address to string.\n     *\n     * @param _addr Address to be converted to string\n     *\n     */\n    function _addressToString(address _addr) internal pure returns (string memory) {\n        bytes32 value = bytes32(uint256(uint160(_addr)));\n        bytes memory alphabet = \"0123456789abcdef\";\n\n        bytes memory str = new bytes(51);\n        str[0] = \"0\";\n        str[1] = \"x\";\n        for (uint i = 0; i < 20; i++) {\n            str[2+i*2] = alphabet[uint(uint8(value[i + 12] >> 4))];\n            str[3+i*2] = alphabet[uint(uint8(value[i + 12] & 0x0f))];\n        }\n        return string(str);\n    }\n}",
  "sourcePath": "/home/yuri/challenges/Illuvium/contracts/ERC20Enhanced.sol",
  "compiler": {
    "name": "solc",
    "version": "0.8.6+commit.11564f7e.Emscripten.clang"
  },
  "schemaVersion": "3.4.1",
  "updatedAt": "2021-11-15T17:42:29.917Z",
  "devdoc": {
    "events": {
      "EmergencyWithdraw(address,address,address,uint256)": {
        "details": "Emmited when the emergency withdraw is used"
      },
      "RegisterEmergencyAddress(address,address)": {
        "details": "Emitted when a new emergency address has been defined"
      }
    },
    "kind": "dev",
    "methods": {
      "allowance(address,address)": {
        "details": "See {IERC20-allowance}."
      },
      "approve(address,uint256)": {
        "details": "See {IERC20-approve}. Requirements: - `spender` cannot be the zero address."
      },
      "balanceOf(address)": {
        "details": "See {IERC20-balanceOf}."
      },
      "decimals()": {
        "details": "Returns the number of decimals used to get its user representation. For example, if `decimals` equals `2`, a balance of `505` tokens should be displayed to a user as `5.05` (`505 / 10 ** 2`). Tokens usually opt for a value of 18, imitating the relationship between Ether and Wei. This is the value {ERC20} uses, unless this function is overridden; NOTE: This information is only used for _display_ purposes: it in no way affects any of the arithmetic of the contract, including {IERC20-balanceOf} and {IERC20-transfer}."
      },
      "decreaseAllowance(address,uint256)": {
        "details": "Atomically decreases the allowance granted to `spender` by the caller. This is an alternative to {approve} that can be used as a mitigation for problems described in {IERC20-approve}. Emits an {Approval} event indicating the updated allowance. Requirements: - `spender` cannot be the zero address. - `spender` must have allowance for the caller of at least `subtractedValue`."
      },
      "emergencyWithdrawWithSig(address,uint256,uint8,bytes32,bytes32)": {
        "details": "Emergency withdraw using a signed message.",
        "params": {
          "deadline": "The EIP-712 signature expiration/deadline timestamp ",
          "from": "The address to withdraw from",
          "r": "The first half of the ECDSA signature",
          "s": "The second half of th ECDSA signature Emits a {EmergencyWithdraw} event. Requirements: - Message signer should not be the null address - Block timestamp should less than _exp (Expiration timestamp) - The emergency address should not be the null address - The signer should not be blacklisted - Balance of signer should be greater than ZERO",
          "v": "the recovery byte of the signature"
        }
      },
      "getEmergencyAddress(address)": {
        "details": "Get the emergency address of `tokenHolder`.",
        "params": {
          "tokenHolder": "Token Holder address Requirements: - tokenHolder must be different from the null address"
        }
      },
      "increaseAllowance(address,uint256)": {
        "details": "Atomically increases the allowance granted to `spender` by the caller. This is an alternative to {approve} that can be used as a mitigation for problems described in {IERC20-approve}. Emits an {Approval} event indicating the updated allowance. Requirements: - `spender` cannot be the zero address."
      },
      "name()": {
        "details": "Returns the name of the token."
      },
      "registerEmergencyAddress(address)": {
        "details": "Register an emergency address (backup address) for the msg.sender.",
        "params": {
          "emergencyAddress": "The emergency address to be set Emits a {RegisterEmergencyAddress} event. Requirements: - msg.sender should not be blacklisted - emergencyAddress should not be blacklisted"
        }
      },
      "symbol()": {
        "details": "Returns the symbol of the token, usually a shorter version of the name."
      },
      "totalSupply()": {
        "details": "See {IERC20-totalSupply}."
      },
      "transfer(address,uint256)": {
        "details": "Transfer to `recipient` an `amount` of tokens.",
        "params": {
          "amount": "The amount of tokens to send  OBS: If the recipient is blacklisted, transfer amount to it's emergency address. Requirements: - msg.sender should not be blacklisted",
          "recipient": "The token recipient address, will be set to emergency address if it's blacklisted"
        }
      },
      "transferFrom(address,address,uint256)": {
        "details": "Transfer from `sender` to `recipient` an `amount` of tokens.",
        "params": {
          "amount": "The amount of tokens to send  OBS: If the recipient is blacklisted, transfer amount to it's emergency address. Requirements: - `sender` should not be blacklisted - Allowance should be greater than `amount`",
          "recipient": "The token recipient address, will be set to emergency address if it's blacklisted",
          "sender": "The token sender address"
        }
      }
    },
    "stateVariables": {
      "EMERGENCY_WITHDRAW_TYPEHASH": {
        "details": "Emergency withdraw typehash"
      },
      "emergency": {
        "details": "Mapping between addresses and it's emergency ones"
      }
    },
    "version": 1
  },
  "userdoc": {
    "kind": "user",
    "methods": {},
    "version": 1
  }
}